{
  "address": "0x2e13B9A1Da63c1293C8BB4AF4fDD63f21FEF2f75",
  "abi": [
    {
      "anonymous": false,
      "inputs": [
        {
          "indexed": false,
          "internalType": "contract GnosisSafeProxy",
          "name": "proxy",
          "type": "address"
        },
        {
          "indexed": false,
          "internalType": "address",
          "name": "singleton",
          "type": "address"
        }
      ],
      "name": "ProxyCreation",
      "type": "event"
    },
    {
      "inputs": [
        {
          "internalType": "address",
          "name": "_singleton",
          "type": "address"
        },
        {
          "internalType": "bytes",
          "name": "initializer",
          "type": "bytes"
        },
        {
          "internalType": "uint256",
          "name": "saltNonce",
          "type": "uint256"
        }
      ],
      "name": "calculateCreateProxyWithNonceAddress",
      "outputs": [
        {
          "internalType": "contract GnosisSafeProxy",
          "name": "proxy",
          "type": "address"
        }
      ],
      "stateMutability": "nonpayable",
      "type": "function"
    },
    {
      "inputs": [
        {
          "internalType": "address",
          "name": "singleton",
          "type": "address"
        },
        {
          "internalType": "bytes",
          "name": "data",
          "type": "bytes"
        }
      ],
      "name": "createProxy",
      "outputs": [
        {
          "internalType": "contract GnosisSafeProxy",
          "name": "proxy",
          "type": "address"
        }
      ],
      "stateMutability": "nonpayable",
      "type": "function"
    },
    {
      "inputs": [
        {
          "internalType": "address",
          "name": "_singleton",
          "type": "address"
        },
        {
          "internalType": "bytes",
          "name": "initializer",
          "type": "bytes"
        },
        {
          "internalType": "uint256",
          "name": "saltNonce",
          "type": "uint256"
        },
        {
          "internalType": "contract IProxyCreationCallback",
          "name": "callback",
          "type": "address"
        }
      ],
      "name": "createProxyWithCallback",
      "outputs": [
        {
          "internalType": "contract GnosisSafeProxy",
          "name": "proxy",
          "type": "address"
        }
      ],
      "stateMutability": "nonpayable",
      "type": "function"
    },
    {
      "inputs": [
        {
          "internalType": "address",
          "name": "_singleton",
          "type": "address"
        },
        {
          "internalType": "bytes",
          "name": "initializer",
          "type": "bytes"
        },
        {
          "internalType": "uint256",
          "name": "saltNonce",
          "type": "uint256"
        }
      ],
      "name": "createProxyWithNonce",
      "outputs": [
        {
          "internalType": "contract GnosisSafeProxy",
          "name": "proxy",
          "type": "address"
        }
      ],
      "stateMutability": "nonpayable",
      "type": "function"
    },
    {
      "inputs": [],
      "name": "proxyCreationCode",
      "outputs": [
        {
          "internalType": "bytes",
          "name": "",
          "type": "bytes"
        }
      ],
      "stateMutability": "pure",
      "type": "function"
    },
    {
      "inputs": [],
      "name": "proxyRuntimeCode",
      "outputs": [
        {
          "internalType": "bytes",
          "name": "",
          "type": "bytes"
        }
      ],
      "stateMutability": "pure",
      "type": "function"
    }
  ],
  "transactionHash": "0x64e5730fb30d5d047077d5105aa593641d2f47946e1c70081bbab9b31531dc8f",
  "args": [],
  "numDeployments": 1,
  "solcInputHash": "b34a7c9bf65de59145ed5fbd08c6feaa",
  "bytecode": "0x608060405234801561001057600080fd5b5061128a806100206000396000f3fe60806040523480156200001157600080fd5b50600436106200006a5760003560e01c80631688f0b9146200006f5780632500510e14620000a557806353e5d93514620000db57806361b69abd14620000fd578063addacc0f1462000133578063d18af54d1462000155575b600080fd5b6200008d6004803603810190620000879190620007c0565b6200018b565b6040516200009c919062000b1d565b60405180910390f35b620000c36004803603810190620000bd9190620006f2565b62000206565b604051620000d2919062000b1d565b60405180910390f35b620000e5620002bb565b604051620000f4919062000af9565b60405180910390f35b6200011b600480360381019062000115919062000766565b620002e8565b6040516200012a919062000b1d565b60405180910390f35b6200013d6200038e565b6040516200014c919062000af9565b60405180910390f35b6200017360048036038101906200016d91906200082f565b620003bb565b60405162000182919062000b1d565b60405180910390f35b60006200019a848484620004b1565b9050600083511115620001c45760008060008551602087016000865af11415620001c357600080fd5b5b7f4f51faf6c4561ff95f067657e43439f0f856d97c04d9ec9070a6199ad418e2358185604051620001f792919062000b3a565b60405180910390a19392505050565b6000620002598585858080601f016020809104026020016040519081016040528093929190818152602001838380828437600081840152601f19601f8201169050808301925050505050505084620004b1565b9050806040516020016200026e919062000a8f565b6040516020818303038152906040526040517f08c379a0000000000000000000000000000000000000000000000000000000008152600401620002b2919062000bbb565b60405180910390fd5b606060405180602001620002cf90620005d3565b6020820181038252601f19601f82011660405250905090565b600082604051620002f990620005d3565b62000305919062000adc565b604051809103906000f08015801562000322573d6000803e3d6000fd5b5090506000825111156200034d5760008060008451602086016000865af114156200034c57600080fd5b5b7f4f51faf6c4561ff95f067657e43439f0f856d97c04d9ec9070a6199ad418e23581846040516200038092919062000b3a565b60405180910390a192915050565b606060405180602001620003a290620005e1565b6020820181038252601f19601f82011660405250905090565b6000808383604051602001620003d392919062000aac565b6040516020818303038152906040528051906020012060001c9050620003fb8686836200018b565b9150600073ffffffffffffffffffffffffffffffffffffffff168373ffffffffffffffffffffffffffffffffffffffff1614620004a8578273ffffffffffffffffffffffffffffffffffffffff16631e52b518838888886040518563ffffffff1660e01b815260040162000473949392919062000b67565b600060405180830381600087803b1580156200048e57600080fd5b505af1158015620004a3573d6000803e3d6000fd5b505050505b50949350505050565b600080838051906020012083604051602001620004d092919062000a33565b604051602081830303815290604052805190602001209050600060405180602001620004fc90620005d3565b6020820181038252601f19601f820116604052508673ffffffffffffffffffffffffffffffffffffffff166040516020016200053a92919062000a63565b6040516020818303038152906040529050818151826020016000f59250600073ffffffffffffffffffffffffffffffffffffffff168373ffffffffffffffffffffffffffffffffffffffff161415620005ca576040517f08c379a0000000000000000000000000000000000000000000000000000000008152600401620005c19062000bdf565b60405180910390fd5b50509392505050565b6102cb8062000edf83390190565b60ab80620011aa83390190565b600062000605620005ff8462000c2a565b62000c01565b9050828152602081018484840111156200061e57600080fd5b6200062b84828562000d4f565b509392505050565b600081359050620006448162000e90565b92915050565b60008083601f8401126200065d57600080fd5b8235905067ffffffffffffffff8111156200067757600080fd5b6020830191508360018202830111156200069057600080fd5b9250929050565b600082601f830112620006a957600080fd5b8135620006bb848260208601620005ee565b91505092915050565b600081359050620006d58162000eaa565b92915050565b600081359050620006ec8162000ec4565b92915050565b600080600080606085870312156200070957600080fd5b6000620007198782880162000633565b945050602085013567ffffffffffffffff8111156200073757600080fd5b62000745878288016200064a565b935093505060406200075a87828801620006db565b91505092959194509250565b600080604083850312156200077a57600080fd5b60006200078a8582860162000633565b925050602083013567ffffffffffffffff811115620007a857600080fd5b620007b68582860162000697565b9150509250929050565b600080600060608486031215620007d657600080fd5b6000620007e68682870162000633565b935050602084013567ffffffffffffffff8111156200080457600080fd5b620008128682870162000697565b92505060406200082586828701620006db565b9150509250925092565b600080600080608085870312156200084657600080fd5b6000620008568782880162000633565b945050602085013567ffffffffffffffff8111156200087457600080fd5b620008828782880162000697565b93505060406200089587828801620006db565b9250506060620008a887828801620006c4565b91505092959194509250565b620008bf8162000ca3565b82525050565b620008da620008d48262000cb7565b62000df2565b82525050565b6000620008ed8262000c60565b620008f9818562000c76565b93506200090b81856020860162000d5e565b620009168162000e49565b840191505092915050565b60006200092e8262000c60565b6200093a818562000c87565b93506200094c81856020860162000d5e565b80840191505092915050565b620009638162000cff565b82525050565b6200097e620009788262000cff565b62000dde565b82525050565b62000999620009938262000d27565b62000dca565b82525050565b6000620009ac8262000c6b565b620009b8818562000c92565b9350620009ca81856020860162000d5e565b620009d58162000e49565b840191505092915050565b6000620009ef60138362000c92565b9150620009fc8262000e67565b602082019050919050565b62000a128162000cf5565b82525050565b62000a2d62000a278262000cf5565b62000e10565b82525050565b600062000a418285620008c5565b60208201915062000a53828462000a18565b6020820191508190509392505050565b600062000a71828562000921565b915062000a7f828462000a18565b6020820191508190509392505050565b600062000a9d828462000969565b60148201915081905092915050565b600062000aba828562000a18565b60208201915062000acc828462000984565b6014820191508190509392505050565b600060208201905062000af36000830184620008b4565b92915050565b6000602082019050818103600083015262000b158184620008e0565b905092915050565b600060208201905062000b34600083018462000958565b92915050565b600060408201905062000b51600083018562000958565b62000b606020830184620008b4565b9392505050565b600060808201905062000b7e600083018762000958565b62000b8d6020830186620008b4565b818103604083015262000ba18185620008e0565b905062000bb2606083018462000a07565b95945050505050565b6000602082019050818103600083015262000bd781846200099f565b905092915050565b6000602082019050818103600083015262000bfa81620009e0565b9050919050565b600062000c0d62000c20565b905062000c1b828262000d94565b919050565b6000604051905090565b600067ffffffffffffffff82111562000c485762000c4762000e1a565b5b62000c538262000e49565b9050602081019050919050565b600081519050919050565b600081519050919050565b600082825260208201905092915050565b600081905092915050565b600082825260208201905092915050565b600062000cb08262000cd5565b9050919050565b6000819050919050565b600062000cce8262000ca3565b9050919050565b600073ffffffffffffffffffffffffffffffffffffffff82169050919050565b6000819050919050565b600062000d0c8262000d13565b9050919050565b600062000d208262000cd5565b9050919050565b600062000d348262000d3b565b9050919050565b600062000d488262000cd5565b9050919050565b82818337600083830152505050565b60005b8381101562000d7e57808201518184015260208101905062000d61565b8381111562000d8e576000848401525b50505050565b62000d9f8262000e49565b810181811067ffffffffffffffff8211171562000dc15762000dc062000e1a565b5b80604052505050565b600062000dd78262000dfc565b9050919050565b600062000deb8262000dfc565b9050919050565b6000819050919050565b600062000e098262000e5a565b9050919050565b6000819050919050565b7f4e487b7100000000000000000000000000000000000000000000000000000000600052604160045260246000fd5b6000601f19601f8301169050919050565b60008160601b9050919050565b7f437265617465322063616c6c206661696c656400000000000000000000000000600082015250565b62000e9b8162000ca3565b811462000ea757600080fd5b50565b62000eb58162000cc1565b811462000ec157600080fd5b50565b62000ecf8162000cf5565b811462000edb57600080fd5b5056fe608060405234801561001057600080fd5b506040516102cb3803806102cb833981810160405281019061003291906100fd565b600073ffffffffffffffffffffffffffffffffffffffff168173ffffffffffffffffffffffffffffffffffffffff1614156100a2576040517f08c379a000000000000000000000000000000000000000000000000000000000815260040161009990610149565b60405180910390fd5b806000806101000a81548173ffffffffffffffffffffffffffffffffffffffff021916908373ffffffffffffffffffffffffffffffffffffffff16021790555050610212565b6000815190506100f7816101fb565b92915050565b60006020828403121561010f57600080fd5b600061011d848285016100e8565b91505092915050565b6000610133602283610169565b915061013e826101ac565b604082019050919050565b6000602082019050818103600083015261016281610126565b9050919050565b600082825260208201905092915050565b60006101858261018c565b9050919050565b600073ffffffffffffffffffffffffffffffffffffffff82169050919050565b7f496e76616c69642073696e676c65746f6e20616464726573732070726f76696460008201527f6564000000000000000000000000000000000000000000000000000000000000602082015250565b6102048161017a565b811461020f57600080fd5b50565b60ab806102206000396000f3fe608060405273ffffffffffffffffffffffffffffffffffffffff600054167fa619486e0000000000000000000000000000000000000000000000000000000060003514156050578060005260206000f35b3660008037600080366000845af43d6000803e60008114156070573d6000fd5b3d6000f3fea2646970667358221220caf80a6cb277ea446eef15f3ff726a536bd547386b3bd3c059b44a3050f9398264736f6c63430008040033608060405273ffffffffffffffffffffffffffffffffffffffff600054167fa619486e0000000000000000000000000000000000000000000000000000000060003514156050578060005260206000f35b3660008037600080366000845af43d6000803e60008114156070573d6000fd5b3d6000f3fea2646970667358221220caf80a6cb277ea446eef15f3ff726a536bd547386b3bd3c059b44a3050f9398264736f6c63430008040033a2646970667358221220c9029b5d9521d7908382ad7b39b2ad193ca32a68d2250ee7d25a661cfd6a28f164736f6c63430008040033",
  "devdoc": {
    "author": "Stefan George - <stefan@gnosis.pm>",
    "kind": "dev",
    "methods": {
      "calculateCreateProxyWithNonceAddress(address,bytes,uint256)": {
        "details": "Allows to get the address for a new proxy contact created via `createProxyWithNonce`      This method is only meant for address calculation purpose when you use an initializer that would revert,      therefore the response is returned with a revert. When calling this method set `from` to the address of the proxy factory.",
        "params": {
          "_singleton": "Address of singleton contract.",
          "initializer": "Payload for message call sent to new proxy contract.",
          "saltNonce": "Nonce that will be used to generate the salt to calculate the address of the new proxy contract."
        }
      },
      "createProxy(address,bytes)": {
        "details": "Allows to create new proxy contact and execute a message call to the new proxy within one transaction.",
        "params": {
          "data": "Payload for message call sent to new proxy contract.",
          "singleton": "Address of singleton contract."
        }
      },
      "createProxyWithCallback(address,bytes,uint256,address)": {
        "details": "Allows to create new proxy contact, execute a message call to the new proxy and call a specified callback within one transaction",
        "params": {
          "_singleton": "Address of singleton contract.",
          "callback": "Callback that will be invoced after the new proxy contract has been successfully deployed and initialized.",
          "initializer": "Payload for message call sent to new proxy contract.",
          "saltNonce": "Nonce that will be used to generate the salt to calculate the address of the new proxy contract."
        }
      },
      "createProxyWithNonce(address,bytes,uint256)": {
        "details": "Allows to create new proxy contact and execute a message call to the new proxy within one transaction.",
        "params": {
          "_singleton": "Address of singleton contract.",
          "initializer": "Payload for message call sent to new proxy contract.",
          "saltNonce": "Nonce that will be used to generate the salt to calculate the address of the new proxy contract."
        }
      },
      "proxyCreationCode()": {
        "details": "Allows to retrieve the creation code used for the Proxy deployment. With this it is easily possible to calculate predicted address."
      },
      "proxyRuntimeCode()": {
        "details": "Allows to retrieve the runtime code of a deployed Proxy. This can be used to check that the expected Proxy was deployed."
      }
    },
    "title": "Proxy Factory - Allows to create new proxy contact and execute a message call to the new proxy within one transaction.",
    "version": 1
  },
  "userdoc": {
    "kind": "user",
    "methods": {},
    "version": 1
  },
  "storageLayout": {
    "storage": [],
    "types": null
  }
}