{
  "address": "0x49d78Ed4aCFc0E4c35D35CB500De4Ee1E215d672",
  "abi": [
    {
      "anonymous": false,
      "inputs": [
        {
          "indexed": false,
          "internalType": "address",
          "name": "owner",
          "type": "address"
        }
      ],
      "name": "AddedOwner",
      "type": "event"
    },
    {
      "anonymous": false,
      "inputs": [
        {
          "indexed": true,
          "internalType": "bytes32",
          "name": "approvedHash",
          "type": "bytes32"
        },
        {
          "indexed": true,
          "internalType": "address",
          "name": "owner",
          "type": "address"
        }
      ],
      "name": "ApproveHash",
      "type": "event"
    },
    {
      "anonymous": false,
      "inputs": [
        {
          "indexed": false,
          "internalType": "address",
          "name": "handler",
          "type": "address"
        }
      ],
      "name": "ChangedFallbackHandler",
      "type": "event"
    },
    {
      "anonymous": false,
      "inputs": [
        {
          "indexed": false,
          "internalType": "address",
          "name": "guard",
          "type": "address"
        }
      ],
      "name": "ChangedGuard",
      "type": "event"
    },
    {
      "anonymous": false,
      "inputs": [
        {
          "indexed": false,
          "internalType": "uint256",
          "name": "threshold",
          "type": "uint256"
        }
      ],
      "name": "ChangedThreshold",
      "type": "event"
    },
    {
      "anonymous": false,
      "inputs": [
        {
          "indexed": false,
          "internalType": "address",
          "name": "module",
          "type": "address"
        }
      ],
      "name": "DisabledModule",
      "type": "event"
    },
    {
      "anonymous": false,
      "inputs": [
        {
          "indexed": false,
          "internalType": "address",
          "name": "module",
          "type": "address"
        }
      ],
      "name": "EnabledModule",
      "type": "event"
    },
    {
      "anonymous": false,
      "inputs": [
        {
          "indexed": false,
          "internalType": "bytes32",
          "name": "txHash",
          "type": "bytes32"
        },
        {
          "indexed": false,
          "internalType": "uint256",
          "name": "payment",
          "type": "uint256"
        }
      ],
      "name": "ExecutionFailure",
      "type": "event"
    },
    {
      "anonymous": false,
      "inputs": [
        {
          "indexed": true,
          "internalType": "address",
          "name": "module",
          "type": "address"
        }
      ],
      "name": "ExecutionFromModuleFailure",
      "type": "event"
    },
    {
      "anonymous": false,
      "inputs": [
        {
          "indexed": true,
          "internalType": "address",
          "name": "module",
          "type": "address"
        }
      ],
      "name": "ExecutionFromModuleSuccess",
      "type": "event"
    },
    {
      "anonymous": false,
      "inputs": [
        {
          "indexed": false,
          "internalType": "bytes32",
          "name": "txHash",
          "type": "bytes32"
        },
        {
          "indexed": false,
          "internalType": "uint256",
          "name": "payment",
          "type": "uint256"
        }
      ],
      "name": "ExecutionSuccess",
      "type": "event"
    },
    {
      "anonymous": false,
      "inputs": [
        {
          "indexed": false,
          "internalType": "address",
          "name": "owner",
          "type": "address"
        }
      ],
      "name": "RemovedOwner",
      "type": "event"
    },
    {
      "anonymous": false,
      "inputs": [
        {
          "indexed": true,
          "internalType": "address",
          "name": "sender",
          "type": "address"
        },
        {
          "indexed": false,
          "internalType": "uint256",
          "name": "value",
          "type": "uint256"
        }
      ],
      "name": "SafeReceived",
      "type": "event"
    },
    {
      "anonymous": false,
      "inputs": [
        {
          "indexed": true,
          "internalType": "address",
          "name": "initiator",
          "type": "address"
        },
        {
          "indexed": false,
          "internalType": "address[]",
          "name": "owners",
          "type": "address[]"
        },
        {
          "indexed": false,
          "internalType": "uint256",
          "name": "threshold",
          "type": "uint256"
        },
        {
          "indexed": false,
          "internalType": "address",
          "name": "initializer",
          "type": "address"
        },
        {
          "indexed": false,
          "internalType": "address",
          "name": "fallbackHandler",
          "type": "address"
        }
      ],
      "name": "SafeSetup",
      "type": "event"
    },
    {
      "anonymous": false,
      "inputs": [
        {
          "indexed": true,
          "internalType": "bytes32",
          "name": "msgHash",
          "type": "bytes32"
        }
      ],
      "name": "SignMsg",
      "type": "event"
    },
    {
      "stateMutability": "nonpayable",
      "type": "fallback"
    },
    {
      "inputs": [],
      "name": "VERSION",
      "outputs": [
        {
          "internalType": "string",
          "name": "",
          "type": "string"
        }
      ],
      "stateMutability": "view",
      "type": "function"
    },
    {
      "inputs": [
        {
          "internalType": "address",
          "name": "owner",
          "type": "address"
        },
        {
          "internalType": "uint256",
          "name": "_threshold",
          "type": "uint256"
        }
      ],
      "name": "addOwnerWithThreshold",
      "outputs": [],
      "stateMutability": "nonpayable",
      "type": "function"
    },
    {
      "inputs": [
        {
          "internalType": "bytes32",
          "name": "hashToApprove",
          "type": "bytes32"
        }
      ],
      "name": "approveHash",
      "outputs": [],
      "stateMutability": "nonpayable",
      "type": "function"
    },
    {
      "inputs": [
        {
          "internalType": "address",
          "name": "",
          "type": "address"
        },
        {
          "internalType": "bytes32",
          "name": "",
          "type": "bytes32"
        }
      ],
      "name": "approvedHashes",
      "outputs": [
        {
          "internalType": "uint256",
          "name": "",
          "type": "uint256"
        }
      ],
      "stateMutability": "view",
      "type": "function"
    },
    {
      "inputs": [
        {
          "internalType": "uint256",
          "name": "_threshold",
          "type": "uint256"
        }
      ],
      "name": "changeThreshold",
      "outputs": [],
      "stateMutability": "nonpayable",
      "type": "function"
    },
    {
      "inputs": [
        {
          "internalType": "bytes32",
          "name": "dataHash",
          "type": "bytes32"
        },
        {
          "internalType": "bytes",
          "name": "data",
          "type": "bytes"
        },
        {
          "internalType": "bytes",
          "name": "signatures",
          "type": "bytes"
        },
        {
          "internalType": "uint256",
          "name": "requiredSignatures",
          "type": "uint256"
        }
      ],
      "name": "checkNSignatures",
      "outputs": [],
      "stateMutability": "view",
      "type": "function"
    },
    {
      "inputs": [
        {
          "internalType": "bytes32",
          "name": "dataHash",
          "type": "bytes32"
        },
        {
          "internalType": "bytes",
          "name": "data",
          "type": "bytes"
        },
        {
          "internalType": "bytes",
          "name": "signatures",
          "type": "bytes"
        }
      ],
      "name": "checkSignatures",
      "outputs": [],
      "stateMutability": "view",
      "type": "function"
    },
    {
      "inputs": [
        {
          "internalType": "address",
          "name": "prevModule",
          "type": "address"
        },
        {
          "internalType": "address",
          "name": "module",
          "type": "address"
        }
      ],
      "name": "disableModule",
      "outputs": [],
      "stateMutability": "nonpayable",
      "type": "function"
    },
    {
      "inputs": [],
      "name": "domainSeparator",
      "outputs": [
        {
          "internalType": "bytes32",
          "name": "",
          "type": "bytes32"
        }
      ],
      "stateMutability": "view",
      "type": "function"
    },
    {
      "inputs": [
        {
          "internalType": "address",
          "name": "module",
          "type": "address"
        }
      ],
      "name": "enableModule",
      "outputs": [],
      "stateMutability": "nonpayable",
      "type": "function"
    },
    {
      "inputs": [
        {
          "internalType": "address",
          "name": "to",
          "type": "address"
        },
        {
          "internalType": "uint256",
          "name": "value",
          "type": "uint256"
        },
        {
          "internalType": "bytes",
          "name": "data",
          "type": "bytes"
        },
        {
          "internalType": "enum Enum.Operation",
          "name": "operation",
          "type": "uint8"
        },
        {
          "internalType": "uint256",
          "name": "safeTxGas",
          "type": "uint256"
        },
        {
          "internalType": "uint256",
          "name": "baseGas",
          "type": "uint256"
        },
        {
          "internalType": "uint256",
          "name": "gasPrice",
          "type": "uint256"
        },
        {
          "internalType": "address",
          "name": "gasToken",
          "type": "address"
        },
        {
          "internalType": "address",
          "name": "refundReceiver",
          "type": "address"
        },
        {
          "internalType": "uint256",
          "name": "_nonce",
          "type": "uint256"
        }
      ],
      "name": "encodeTransactionData",
      "outputs": [
        {
          "internalType": "bytes",
          "name": "",
          "type": "bytes"
        }
      ],
      "stateMutability": "view",
      "type": "function"
    },
    {
      "inputs": [
        {
          "internalType": "address",
          "name": "to",
          "type": "address"
        },
        {
          "internalType": "uint256",
          "name": "value",
          "type": "uint256"
        },
        {
          "internalType": "bytes",
          "name": "data",
          "type": "bytes"
        },
        {
          "internalType": "enum Enum.Operation",
          "name": "operation",
          "type": "uint8"
        },
        {
          "internalType": "uint256",
          "name": "safeTxGas",
          "type": "uint256"
        },
        {
          "internalType": "uint256",
          "name": "baseGas",
          "type": "uint256"
        },
        {
          "internalType": "uint256",
          "name": "gasPrice",
          "type": "uint256"
        },
        {
          "internalType": "address",
          "name": "gasToken",
          "type": "address"
        },
        {
          "internalType": "address payable",
          "name": "refundReceiver",
          "type": "address"
        },
        {
          "internalType": "bytes",
          "name": "signatures",
          "type": "bytes"
        }
      ],
      "name": "execTransaction",
      "outputs": [
        {
          "internalType": "bool",
          "name": "success",
          "type": "bool"
        }
      ],
      "stateMutability": "payable",
      "type": "function"
    },
    {
      "inputs": [
        {
          "internalType": "address",
          "name": "to",
          "type": "address"
        },
        {
          "internalType": "uint256",
          "name": "value",
          "type": "uint256"
        },
        {
          "internalType": "bytes",
          "name": "data",
          "type": "bytes"
        },
        {
          "internalType": "enum Enum.Operation",
          "name": "operation",
          "type": "uint8"
        }
      ],
      "name": "execTransactionFromModule",
      "outputs": [
        {
          "internalType": "bool",
          "name": "success",
          "type": "bool"
        }
      ],
      "stateMutability": "nonpayable",
      "type": "function"
    },
    {
      "inputs": [
        {
          "internalType": "address",
          "name": "to",
          "type": "address"
        },
        {
          "internalType": "uint256",
          "name": "value",
          "type": "uint256"
        },
        {
          "internalType": "bytes",
          "name": "data",
          "type": "bytes"
        },
        {
          "internalType": "enum Enum.Operation",
          "name": "operation",
          "type": "uint8"
        }
      ],
      "name": "execTransactionFromModuleReturnData",
      "outputs": [
        {
          "internalType": "bool",
          "name": "success",
          "type": "bool"
        },
        {
          "internalType": "bytes",
          "name": "returnData",
          "type": "bytes"
        }
      ],
      "stateMutability": "nonpayable",
      "type": "function"
    },
    {
      "inputs": [],
      "name": "getChainId",
      "outputs": [
        {
          "internalType": "uint256",
          "name": "",
          "type": "uint256"
        }
      ],
      "stateMutability": "view",
      "type": "function"
    },
    {
      "inputs": [
        {
          "internalType": "address",
          "name": "start",
          "type": "address"
        },
        {
          "internalType": "uint256",
          "name": "pageSize",
          "type": "uint256"
        }
      ],
      "name": "getModulesPaginated",
      "outputs": [
        {
          "internalType": "address[]",
          "name": "array",
          "type": "address[]"
        },
        {
          "internalType": "address",
          "name": "next",
          "type": "address"
        }
      ],
      "stateMutability": "view",
      "type": "function"
    },
    {
      "inputs": [],
      "name": "getOwners",
      "outputs": [
        {
          "internalType": "address[]",
          "name": "",
          "type": "address[]"
        }
      ],
      "stateMutability": "view",
      "type": "function"
    },
    {
      "inputs": [
        {
          "internalType": "uint256",
          "name": "offset",
          "type": "uint256"
        },
        {
          "internalType": "uint256",
          "name": "length",
          "type": "uint256"
        }
      ],
      "name": "getStorageAt",
      "outputs": [
        {
          "internalType": "bytes",
          "name": "",
          "type": "bytes"
        }
      ],
      "stateMutability": "view",
      "type": "function"
    },
    {
      "inputs": [],
      "name": "getThreshold",
      "outputs": [
        {
          "internalType": "uint256",
          "name": "",
          "type": "uint256"
        }
      ],
      "stateMutability": "view",
      "type": "function"
    },
    {
      "inputs": [
        {
          "internalType": "address",
          "name": "to",
          "type": "address"
        },
        {
          "internalType": "uint256",
          "name": "value",
          "type": "uint256"
        },
        {
          "internalType": "bytes",
          "name": "data",
          "type": "bytes"
        },
        {
          "internalType": "enum Enum.Operation",
          "name": "operation",
          "type": "uint8"
        },
        {
          "internalType": "uint256",
          "name": "safeTxGas",
          "type": "uint256"
        },
        {
          "internalType": "uint256",
          "name": "baseGas",
          "type": "uint256"
        },
        {
          "internalType": "uint256",
          "name": "gasPrice",
          "type": "uint256"
        },
        {
          "internalType": "address",
          "name": "gasToken",
          "type": "address"
        },
        {
          "internalType": "address",
          "name": "refundReceiver",
          "type": "address"
        },
        {
          "internalType": "uint256",
          "name": "_nonce",
          "type": "uint256"
        }
      ],
      "name": "getTransactionHash",
      "outputs": [
        {
          "internalType": "bytes32",
          "name": "",
          "type": "bytes32"
        }
      ],
      "stateMutability": "view",
      "type": "function"
    },
    {
      "inputs": [
        {
          "internalType": "address",
          "name": "module",
          "type": "address"
        }
      ],
      "name": "isModuleEnabled",
      "outputs": [
        {
          "internalType": "bool",
          "name": "",
          "type": "bool"
        }
      ],
      "stateMutability": "view",
      "type": "function"
    },
    {
      "inputs": [
        {
          "internalType": "address",
          "name": "owner",
          "type": "address"
        }
      ],
      "name": "isOwner",
      "outputs": [
        {
          "internalType": "bool",
          "name": "",
          "type": "bool"
        }
      ],
      "stateMutability": "view",
      "type": "function"
    },
    {
      "inputs": [],
      "name": "nonce",
      "outputs": [
        {
          "internalType": "uint256",
          "name": "",
          "type": "uint256"
        }
      ],
      "stateMutability": "view",
      "type": "function"
    },
    {
      "inputs": [
        {
          "internalType": "address",
          "name": "prevOwner",
          "type": "address"
        },
        {
          "internalType": "address",
          "name": "owner",
          "type": "address"
        },
        {
          "internalType": "uint256",
          "name": "_threshold",
          "type": "uint256"
        }
      ],
      "name": "removeOwner",
      "outputs": [],
      "stateMutability": "nonpayable",
      "type": "function"
    },
    {
      "inputs": [
        {
          "internalType": "address",
          "name": "to",
          "type": "address"
        },
        {
          "internalType": "uint256",
          "name": "value",
          "type": "uint256"
        },
        {
          "internalType": "bytes",
          "name": "data",
          "type": "bytes"
        },
        {
          "internalType": "enum Enum.Operation",
          "name": "operation",
          "type": "uint8"
        }
      ],
      "name": "requiredTxGas",
      "outputs": [
        {
          "internalType": "uint256",
          "name": "",
          "type": "uint256"
        }
      ],
      "stateMutability": "nonpayable",
      "type": "function"
    },
    {
      "inputs": [
        {
          "internalType": "address",
          "name": "handler",
          "type": "address"
        }
      ],
      "name": "setFallbackHandler",
      "outputs": [],
      "stateMutability": "nonpayable",
      "type": "function"
    },
    {
      "inputs": [
        {
          "internalType": "address",
          "name": "guard",
          "type": "address"
        }
      ],
      "name": "setGuard",
      "outputs": [],
      "stateMutability": "nonpayable",
      "type": "function"
    },
    {
      "inputs": [
        {
          "internalType": "address[]",
          "name": "_owners",
          "type": "address[]"
        },
        {
          "internalType": "uint256",
          "name": "_threshold",
          "type": "uint256"
        },
        {
          "internalType": "address",
          "name": "to",
          "type": "address"
        },
        {
          "internalType": "bytes",
          "name": "data",
          "type": "bytes"
        },
        {
          "internalType": "address",
          "name": "fallbackHandler",
          "type": "address"
        },
        {
          "internalType": "address",
          "name": "paymentToken",
          "type": "address"
        },
        {
          "internalType": "uint256",
          "name": "payment",
          "type": "uint256"
        },
        {
          "internalType": "address payable",
          "name": "paymentReceiver",
          "type": "address"
        }
      ],
      "name": "setup",
      "outputs": [],
      "stateMutability": "nonpayable",
      "type": "function"
    },
    {
      "inputs": [
        {
          "internalType": "bytes32",
          "name": "",
          "type": "bytes32"
        }
      ],
      "name": "signedMessages",
      "outputs": [
        {
          "internalType": "uint256",
          "name": "",
          "type": "uint256"
        }
      ],
      "stateMutability": "view",
      "type": "function"
    },
    {
      "inputs": [
        {
          "internalType": "address",
          "name": "targetContract",
          "type": "address"
        },
        {
          "internalType": "bytes",
          "name": "calldataPayload",
          "type": "bytes"
        }
      ],
      "name": "simulateAndRevert",
      "outputs": [],
      "stateMutability": "nonpayable",
      "type": "function"
    },
    {
      "inputs": [
        {
          "internalType": "address",
          "name": "simulateTxContract",
          "type": "address"
        },
        {
          "internalType": "address",
          "name": "to",
          "type": "address"
        },
        {
          "internalType": "uint256",
          "name": "value",
          "type": "uint256"
        },
        {
          "internalType": "bytes",
          "name": "data",
          "type": "bytes"
        },
        {
          "internalType": "enum Enum.Operation",
          "name": "operation",
          "type": "uint8"
        }
      ],
      "name": "simulateTx",
      "outputs": [
        {
          "internalType": "bool",
          "name": "success",
          "type": "bool"
        }
      ],
      "stateMutability": "nonpayable",
      "type": "function"
    },
    {
      "inputs": [
        {
          "internalType": "address",
          "name": "prevOwner",
          "type": "address"
        },
        {
          "internalType": "address",
          "name": "oldOwner",
          "type": "address"
        },
        {
          "internalType": "address",
          "name": "newOwner",
          "type": "address"
        }
      ],
      "name": "swapOwner",
      "outputs": [],
      "stateMutability": "nonpayable",
      "type": "function"
    },
    {
      "stateMutability": "payable",
      "type": "receive"
    }
  ],
  "transactionHash": "0xd06d0cb73e70a56bc6e273fbfbe3d436eab9308686bb61721395acbceaaae467",
  "args": [],
  "numDeployments": 1,
  "solcInputHash": "77ad1907264a89fc35aa526080d15b72",
  "bytecode": "0x608060405234801561001057600080fd5b50600160048190555061687880620000296000396000f3fe6080604052600436106101e75760003560e01c8063affed0e011610102578063e19a9dd911610095578063f08a032311610064578063f08a032314610826578063f698da251461084f578063f8dc5dd91461087a578063ffa1ad74146108a35761023c565b8063e19a9dd91461076c578063e318b52b14610795578063e75235b8146107be578063e86637db146107e95761023c565b8063cc2f8452116100d1578063cc2f84521461069f578063d4d9bdcd146106dd578063d8d11f7814610706578063e009cfde146107435761023c565b8063affed0e0146105e5578063b4faba0914610610578063b63e800d14610639578063c4ca3a9c146106625761023c565b80635624b25b1161017a5780636a761202116101495780636a761202146105245780637d83297414610554578063934f3a1114610591578063a0e67e2b146105ba5761023c565b80635624b25b146104585780635ae6bd3714610495578063610b5925146104d2578063694e80c3146104fb5761023c565b80632f54bf6e116101b65780632f54bf6e146103755780633408e470146103b2578063468721a7146103dd5780635229073f1461041a5761023c565b80630d582f13146102a957806312fb68e0146102d25780631ff142b5146102fb5780632d9ad53d146103385761023c565b3661023c573373ffffffffffffffffffffffffffffffffffffffff167f3d0ce9bfc3ed7d6862dbb28b2dea94561fe714a1b4d019aa8af39730d1ad7c3d346040516102329190615da3565b60405180910390a2005b34801561024857600080fd5b5060007f6c9a6c4a39284e37ed1cf53d337577d14212a4870fb976a4366c693b939918d560001b905080548061027d57600080f35b36600080373360601b365260008060143601600080855af13d6000803e806102a4573d6000fd5b3d6000f35b3480156102b557600080fd5b506102d060048036038101906102cb919061488f565b6108ce565b005b3480156102de57600080fd5b506102f960048036038101906102f49190614d8a565b610c48565b005b34801561030757600080fd5b50610322600480360381019061031d919061476d565b61124f565b60405161032f91906157ce565b60405180910390f35b34801561034457600080fd5b5061035f600480360381019061035a919061466a565b611343565b60405161036c91906157ce565b60405180910390f35b34801561038157600080fd5b5061039c6004803603810190610397919061466a565b611415565b6040516103a991906157ce565b60405180910390f35b3480156103be57600080fd5b506103c76114e7565b6040516103d49190615da3565b60405180910390f35b3480156103e957600080fd5b5061040460048036038101906103ff9190614b53565b6114f4565b60405161041191906157ce565b60405180910390f35b34801561042657600080fd5b50610441600480360381019061043c9190614b53565b6116a7565b60405161044f9291906157e9565b60405180910390f35b34801561046457600080fd5b5061047f600480360381019061047a9190614e6f565b6116dd565b60405161048c91906159c8565b60405180910390f35b3480156104a157600080fd5b506104bc60048036038101906104b79190614ce2565b61179b565b6040516104c99190615da3565b60405180910390f35b3480156104de57600080fd5b506104f960048036038101906104f4919061466a565b6117b3565b005b34801561050757600080fd5b50610522600480360381019061051d9190614e46565b611b07565b005b61053e6004803603810190610539919061494b565b611bdb565b60405161054b91906157ce565b60405180910390f35b34801561056057600080fd5b5061057b600480360381019061057691906147ff565b611f9c565b6040516105889190615da3565b60405180910390f35b34801561059d57600080fd5b506105b860048036038101906105b39190614d0b565b611fc1565b005b3480156105c657600080fd5b506105cf61201d565b6040516105dc919061577c565b60405180910390f35b3480156105f157600080fd5b506105fa612221565b6040516106079190615da3565b60405180910390f35b34801561061c57600080fd5b506106376004803603810190610632919061483b565b612227565b005b34801561064557600080fd5b50610660600480360381019061065b9190614bce565b612249565b005b34801561066e57600080fd5b50610689600480360381019061068491906148cb565b61239c565b6040516106969190615da3565b60405180910390f35b3480156106ab57600080fd5b506106c660048036038101906106c1919061488f565b612468565b6040516106d492919061579e565b60405180910390f35b3480156106e957600080fd5b5061070460048036038101906106ff9190614ce2565b6126b5565b005b34801561071257600080fd5b5061072d60048036038101906107289190614a5b565b612821565b60405161073a9190615819565b60405180910390f35b34801561074f57600080fd5b5061076a60048036038101906107659190614693565b61284e565b005b34801561077857600080fd5b50610793600480360381019061078e919061466a565b612b63565b005b3480156107a157600080fd5b506107bc60048036038101906107b791906146cf565b612cee565b005b3480156107ca57600080fd5b506107d361339c565b6040516107e09190615da3565b60405180910390f35b3480156107f557600080fd5b50610810600480360381019061080b9190614a5b565b6133a6565b60405161081d91906159c8565b60405180910390f35b34801561083257600080fd5b5061084d6004803603810190610848919061466a565b613468565b005b34801561085b57600080fd5b506108646134b3565b6040516108719190615819565b60405180910390f35b34801561088657600080fd5b506108a1600480360381019061089c919061471e565b61350f565b005b3480156108af57600080fd5b506108b86138a1565b6040516108c59190615a21565b60405180910390f35b6108d66138da565b600073ffffffffffffffffffffffffffffffffffffffff168273ffffffffffffffffffffffffffffffffffffffff16141580156109405750600173ffffffffffffffffffffffffffffffffffffffff168273ffffffffffffffffffffffffffffffffffffffff1614155b801561097857503073ffffffffffffffffffffffffffffffffffffffff168273ffffffffffffffffffffffffffffffffffffffff1614155b6109b7576040517f08c379a00000000000000000000000000000000000000000000000000000000081526004016109ae90615b23565b60405180910390fd5b600073ffffffffffffffffffffffffffffffffffffffff16600260008473ffffffffffffffffffffffffffffffffffffffff1673ffffffffffffffffffffffffffffffffffffffff16815260200190815260200160002060009054906101000a900473ffffffffffffffffffffffffffffffffffffffff1673ffffffffffffffffffffffffffffffffffffffff1614610a85576040517f08c379a0000000000000000000000000000000000000000000000000000000008152600401610a7c90615cc3565b60405180910390fd5b60026000600173ffffffffffffffffffffffffffffffffffffffff1673ffffffffffffffffffffffffffffffffffffffff16815260200190815260200160002060009054906101000a900473ffffffffffffffffffffffffffffffffffffffff16600260008473ffffffffffffffffffffffffffffffffffffffff1673ffffffffffffffffffffffffffffffffffffffff16815260200190815260200160002060006101000a81548173ffffffffffffffffffffffffffffffffffffffff021916908373ffffffffffffffffffffffffffffffffffffffff1602179055508160026000600173ffffffffffffffffffffffffffffffffffffffff1673ffffffffffffffffffffffffffffffffffffffff16815260200190815260200160002060006101000a81548173ffffffffffffffffffffffffffffffffffffffff021916908373ffffffffffffffffffffffffffffffffffffffff16021790555060036000815480929190610bf5906161c1565b91905055507f9465fa0c962cc76958e6373a993326400c1c94f8be2fe3a952adfa7f60b2ea2682604051610c2991906155e1565b60405180910390a18060045414610c4457610c4381611b07565b5b5050565b610c5c60418261394a90919063ffffffff16565b82511015610c9f576040517f08c379a0000000000000000000000000000000000000000000000000000000008152600401610c9690615d63565b60405180910390fd5b6000808060008060005b8681101561124357610cbb888261398f565b80945081955082965050505060008460ff161415610f25578260001c9450610ced60418861394a90919063ffffffff16565b8260001c1015610d32576040517f08c379a0000000000000000000000000000000000000000000000000000000008152600401610d2990615d23565b60405180910390fd5b8751610d4b60208460001c6139be90919063ffffffff16565b1115610d8c576040517f08c379a0000000000000000000000000000000000000000000000000000000008152600401610d8390615ae3565b60405180910390fd5b60006020838a01015190508851610dc282610db460208760001c6139be90919063ffffffff16565b6139be90919063ffffffff16565b1115610e03576040517f08c379a0000000000000000000000000000000000000000000000000000000008152600401610dfa90615a43565b60405180910390fd5b60606020848b010190506320c13b0b60e01b7bffffffffffffffffffffffffffffffffffffffffffffffffffffffff19168773ffffffffffffffffffffffffffffffffffffffff166320c13b0b8d846040518363ffffffff1660e01b8152600401610e6f9291906159ea565b60206040518083038186803b158015610e8757600080fd5b505afa158015610e9b573d6000803e3d6000fd5b505050506040513d601f19601f82011682018060405250810190610ebf9190614e1d565b7bffffffffffffffffffffffffffffffffffffffffffffffffffffffff191614610f1e576040517f08c379a0000000000000000000000000000000000000000000000000000000008152600401610f1590615a83565b60405180910390fd5b50506110ee565b60018460ff161415611006578260001c94508473ffffffffffffffffffffffffffffffffffffffff163373ffffffffffffffffffffffffffffffffffffffff161480610fc257506000600860008773ffffffffffffffffffffffffffffffffffffffff1673ffffffffffffffffffffffffffffffffffffffff16815260200190815260200160002060008c81526020019081526020016000205414155b611001576040517f08c379a0000000000000000000000000000000000000000000000000000000008152600401610ff890615ca3565b60405180910390fd5b6110ed565b601e8460ff16111561109a5760018a60405160200161102591906155a0565b604051602081830303815290604052805190602001206004866110489190615fde565b8585604051600081526020016040526040516110679493929190615968565b6020604051602081039080840390855afa158015611089573d6000803e3d6000fd5b5050506020604051035194506110ec565b60018a858585604051600081526020016040526040516110bd9493929190615968565b6020604051602081039080840390855afa1580156110df573d6000803e3d6000fd5b5050506020604051035194505b5b5b8573ffffffffffffffffffffffffffffffffffffffff168573ffffffffffffffffffffffffffffffffffffffff161180156111b55750600073ffffffffffffffffffffffffffffffffffffffff16600260008773ffffffffffffffffffffffffffffffffffffffff1673ffffffffffffffffffffffffffffffffffffffff16815260200190815260200160002060009054906101000a900473ffffffffffffffffffffffffffffffffffffffff1673ffffffffffffffffffffffffffffffffffffffff1614155b80156111ee5750600173ffffffffffffffffffffffffffffffffffffffff168573ffffffffffffffffffffffffffffffffffffffff1614155b61122d576040517f08c379a000000000000000000000000000000000000000000000000000000000815260040161122490615a63565b60405180910390fd5b849550808061123b906161c1565b915050610ca9565b50505050505050505050565b60008673ffffffffffffffffffffffffffffffffffffffff16631c5fb21160e01b8787878787604051602401611289959493929190615625565b604051602081830303815290604052907bffffffffffffffffffffffffffffffffffffffffffffffffffffffff19166020820180517bffffffffffffffffffffffffffffffffffffffffffffffffffffffff83818316178352505050506040516112f39190615589565b600060405180830381855af49150503d806000811461132e576040519150601f19603f3d011682016040523d82523d6000602084013e611333565b606091505b5050809150509695505050505050565b60008173ffffffffffffffffffffffffffffffffffffffff16600173ffffffffffffffffffffffffffffffffffffffff161415801561140e5750600073ffffffffffffffffffffffffffffffffffffffff16600160008473ffffffffffffffffffffffffffffffffffffffff1673ffffffffffffffffffffffffffffffffffffffff16815260200190815260200160002060009054906101000a900473ffffffffffffffffffffffffffffffffffffffff1673ffffffffffffffffffffffffffffffffffffffff1614155b9050919050565b6000600173ffffffffffffffffffffffffffffffffffffffff168273ffffffffffffffffffffffffffffffffffffffff16141580156114e05750600073ffffffffffffffffffffffffffffffffffffffff16600260008473ffffffffffffffffffffffffffffffffffffffff1673ffffffffffffffffffffffffffffffffffffffff16815260200190815260200160002060009054906101000a900473ffffffffffffffffffffffffffffffffffffffff1673ffffffffffffffffffffffffffffffffffffffff1614155b9050919050565b6000804690508091505090565b6000600173ffffffffffffffffffffffffffffffffffffffff163373ffffffffffffffffffffffffffffffffffffffff16141580156115bf5750600073ffffffffffffffffffffffffffffffffffffffff16600160003373ffffffffffffffffffffffffffffffffffffffff1673ffffffffffffffffffffffffffffffffffffffff16815260200190815260200160002060009054906101000a900473ffffffffffffffffffffffffffffffffffffffff1673ffffffffffffffffffffffffffffffffffffffff1614155b6115fe576040517f08c379a00000000000000000000000000000000000000000000000000000000081526004016115f590615c63565b60405180910390fd5b61160b858585855a6139e6565b9050801561165b573373ffffffffffffffffffffffffffffffffffffffff167f6895c13664aa4f67288b25d7a21d7aaa34916e355fb9b6fae0a139a9085becb860405160405180910390a261169f565b3373ffffffffffffffffffffffffffffffffffffffff167facd2c8702804128fdb0db2bb49f6d127dd0181c13fd45dbfe16de0930e2bd37560405160405180910390a25b949350505050565b600060606116b7868686866114f4565b915060405160203d0181016040523d81523d6000602083013e8091505094509492505050565b606060006020836116ee9190615f50565b67ffffffffffffffff81111561172d577f4e487b7100000000000000000000000000000000000000000000000000000000600052604160045260246000fd5b6040519080825280601f01601f19166020018201604052801561175f5781602001600182028036833780820191505090505b50905060005b8381101561179057808501548060208302602085010152508080611788906161c1565b915050611765565b508091505092915050565b60076020528060005260406000206000915090505481565b6117bb6138da565b6117f96040518060400160405280601381526020017f656e61626c654d6f64756c652063616c6c656400000000000000000000000000815250613a8c565b600073ffffffffffffffffffffffffffffffffffffffff168173ffffffffffffffffffffffffffffffffffffffff16141580156118635750600173ffffffffffffffffffffffffffffffffffffffff168173ffffffffffffffffffffffffffffffffffffffff1614155b6118a2576040517f08c379a000000000000000000000000000000000000000000000000000000000815260040161189990615d43565b60405180910390fd5b600073ffffffffffffffffffffffffffffffffffffffff16600160008373ffffffffffffffffffffffffffffffffffffffff1673ffffffffffffffffffffffffffffffffffffffff16815260200190815260200160002060009054906101000a900473ffffffffffffffffffffffffffffffffffffffff1673ffffffffffffffffffffffffffffffffffffffff1614611970576040517f08c379a000000000000000000000000000000000000000000000000000000000815260040161196790615ce3565b60405180910390fd5b60016000600173ffffffffffffffffffffffffffffffffffffffff1673ffffffffffffffffffffffffffffffffffffffff16815260200190815260200160002060009054906101000a900473ffffffffffffffffffffffffffffffffffffffff16600160008373ffffffffffffffffffffffffffffffffffffffff1673ffffffffffffffffffffffffffffffffffffffff16815260200190815260200160002060006101000a81548173ffffffffffffffffffffffffffffffffffffffff021916908373ffffffffffffffffffffffffffffffffffffffff1602179055508060016000600173ffffffffffffffffffffffffffffffffffffffff1673ffffffffffffffffffffffffffffffffffffffff16815260200190815260200160002060006101000a81548173ffffffffffffffffffffffffffffffffffffffff021916908373ffffffffffffffffffffffffffffffffffffffff1602179055507fecdf3a3effea5783a3c4c2140e677577666428d44ed9d474a0b3a4c9943f844081604051611afc91906155e1565b60405180910390a150565b611b0f6138da565b600354811115611b54576040517f08c379a0000000000000000000000000000000000000000000000000000000008152600401611b4b90615ac3565b60405180910390fd5b6001811015611b98576040517f08c379a0000000000000000000000000000000000000000000000000000000008152600401611b8f90615c43565b60405180910390fd5b806004819055507f610f7ff2b304ae8903c3de74c60c6ab1f7d6226b3f52c5161905bb5ad4039c93600454604051611bd09190615da3565b60405180910390a150565b6000806000611bf58e8e8e8e8e8e8e8e8e8e6005546133a6565b905060056000815480929190611c0a906161c1565b919050555080805190602001209150611c24828286611fc1565b506000611c2f613b25565b9050600073ffffffffffffffffffffffffffffffffffffffff168173ffffffffffffffffffffffffffffffffffffffff1614611ce7578073ffffffffffffffffffffffffffffffffffffffff166375f0bb528f8f8f8f8f8f8f8f8f8f8f336040518d63ffffffff1660e01b8152600401611cb49c9b9a99989796959493929190615673565b600060405180830381600087803b158015611cce57600080fd5b505af1158015611ce2573d6000803e3d6000fd5b505050505b6101f4611d226109c48b611cfb9190615ec9565b603f60408d611d0a9190615f50565b611d149190615f1f565b613b5690919063ffffffff16565b611d2c9190615ec9565b5a1015611d6e576040517f08c379a0000000000000000000000000000000000000000000000000000000008152600401611d6590615c23565b60405180910390fd5b60005a9050611de08f8f8f8f8080601f016020809104026020016040519081016040528093929190818152602001838380828437600081840152601f19601f820116905080830192505050505050508e60008d14611dcc578e611ddb565b6109c45a611dda9190615faa565b5b6139e6565b9350611df55a82613b7090919063ffffffff16565b90508380611e04575060008a14155b80611e10575060008814155b611e4f576040517f08c379a0000000000000000000000000000000000000000000000000000000008152600401611e4690615c03565b60405180910390fd5b600080891115611e6957611e66828b8b8b8b613b99565b90505b8415611ead577f442e715f626346e8c54381002da614f62bee8d27386535b2521ec8540898556e8482604051611ea0929190615908565b60405180910390a1611ee7565b7f23428b18acfb3ea64b08dc0c1d296ea9c09702c09083ca5272e64d115b687d238482604051611ede929190615908565b60405180910390a15b5050600073ffffffffffffffffffffffffffffffffffffffff168173ffffffffffffffffffffffffffffffffffffffff1614611f8b578073ffffffffffffffffffffffffffffffffffffffff16639327136883856040518363ffffffff1660e01b8152600401611f589291906158df565b600060405180830381600087803b158015611f7257600080fd5b505af1158015611f86573d6000803e3d6000fd5b505050505b50509b9a5050505050505050505050565b6008602052816000526040600020602052806000526040600020600091509150505481565b600060045490506000811161200b576040517f08c379a000000000000000000000000000000000000000000000000000000000815260040161200290615be3565b60405180910390fd5b61201784848484610c48565b50505050565b6060600060035467ffffffffffffffff811115612063577f4e487b7100000000000000000000000000000000000000000000000000000000600052604160045260246000fd5b6040519080825280602002602001820160405280156120915781602001602082028036833780820191505090505b50905060008060026000600173ffffffffffffffffffffffffffffffffffffffff1673ffffffffffffffffffffffffffffffffffffffff16815260200190815260200160002060009054906101000a900473ffffffffffffffffffffffffffffffffffffffff1690505b600173ffffffffffffffffffffffffffffffffffffffff168173ffffffffffffffffffffffffffffffffffffffff16146122185780838381518110612169577f4e487b7100000000000000000000000000000000000000000000000000000000600052603260045260246000fd5b602002602001019073ffffffffffffffffffffffffffffffffffffffff16908173ffffffffffffffffffffffffffffffffffffffff1681525050600260008273ffffffffffffffffffffffffffffffffffffffff1673ffffffffffffffffffffffffffffffffffffffff16815260200190815260200160002060009054906101000a900473ffffffffffffffffffffffffffffffffffffffff1690508180612210906161c1565b9250506120fb565b82935050505090565b60055481565b600080825160208401855af4806000523d6020523d600060403e60403d016000fd5b6122948a8a80806020026020016040519081016040528093929190818152602001838360200280828437600081840152601f19601f8201169050808301925050505050505089613d39565b600073ffffffffffffffffffffffffffffffffffffffff168473ffffffffffffffffffffffffffffffffffffffff16146122d2576122d18461416d565b5b6123208787878080601f016020809104026020016040519081016040528093929190818152602001838380828437600081840152601f19601f8201169050808301925050505050505061419c565b600082111561233a5761233882600060018685613b99565b505b3373ffffffffffffffffffffffffffffffffffffffff167f141df868a6331af528e38c83b7aa03edc19be66e37ae67f9285bf4f8e3c6a1a88b8b8b8b8960405161238895949392919061572e565b60405180910390a250505050505050505050565b6000805a90506123f3878787878080601f016020809104026020016040519081016040528093929190818152602001838380828437600081840152601f19601f82011690508083019250505050505050865a6139e6565b6123fc57600080fd5b60005a8261240a9190615faa565b90508060405160200161241d91906155c6565b6040516020818303038152906040526040517f08c379a000000000000000000000000000000000000000000000000000000000815260040161245f9190615a21565b60405180910390fd5b606060008267ffffffffffffffff8111156124ac577f4e487b7100000000000000000000000000000000000000000000000000000000600052604160045260246000fd5b6040519080825280602002602001820160405280156124da5781602001602082028036833780820191505090505b509150600080600160008773ffffffffffffffffffffffffffffffffffffffff1673ffffffffffffffffffffffffffffffffffffffff16815260200190815260200160002060009054906101000a900473ffffffffffffffffffffffffffffffffffffffff1690505b600073ffffffffffffffffffffffffffffffffffffffff168173ffffffffffffffffffffffffffffffffffffffff16141580156125ad5750600173ffffffffffffffffffffffffffffffffffffffff168173ffffffffffffffffffffffffffffffffffffffff1614155b80156125b857508482105b156126a657808483815181106125f7577f4e487b7100000000000000000000000000000000000000000000000000000000600052603260045260246000fd5b602002602001019073ffffffffffffffffffffffffffffffffffffffff16908173ffffffffffffffffffffffffffffffffffffffff1681525050600160008273ffffffffffffffffffffffffffffffffffffffff1673ffffffffffffffffffffffffffffffffffffffff16815260200190815260200160002060009054906101000a900473ffffffffffffffffffffffffffffffffffffffff169050818061269e906161c1565b925050612543565b80925081845250509250929050565b600073ffffffffffffffffffffffffffffffffffffffff16600260003373ffffffffffffffffffffffffffffffffffffffff1673ffffffffffffffffffffffffffffffffffffffff16815260200190815260200160002060009054906101000a900473ffffffffffffffffffffffffffffffffffffffff1673ffffffffffffffffffffffffffffffffffffffff161415612784576040517f08c379a000000000000000000000000000000000000000000000000000000000815260040161277b90615aa3565b60405180910390fd5b6001600860003373ffffffffffffffffffffffffffffffffffffffff1673ffffffffffffffffffffffffffffffffffffffff1681526020019081526020016000206000838152602001908152602001600020819055503373ffffffffffffffffffffffffffffffffffffffff16817ff2a0eb156472d1440255b0d7c1e19cc07115d1051fe605b0dce69acfec884d9c60405160405180910390a350565b60006128368c8c8c8c8c8c8c8c8c8c8c6133a6565b8051906020012090509b9a5050505050505050505050565b6128566138da565b600073ffffffffffffffffffffffffffffffffffffffff168173ffffffffffffffffffffffffffffffffffffffff16141580156128c05750600173ffffffffffffffffffffffffffffffffffffffff168173ffffffffffffffffffffffffffffffffffffffff1614155b6128ff576040517f08c379a00000000000000000000000000000000000000000000000000000000081526004016128f690615d43565b60405180910390fd5b8073ffffffffffffffffffffffffffffffffffffffff16600160008473ffffffffffffffffffffffffffffffffffffffff1673ffffffffffffffffffffffffffffffffffffffff16815260200190815260200160002060009054906101000a900473ffffffffffffffffffffffffffffffffffffffff1673ffffffffffffffffffffffffffffffffffffffff16146129cc576040517f08c379a00000000000000000000000000000000000000000000000000000000081526004016129c390615b83565b60405180910390fd5b600160008273ffffffffffffffffffffffffffffffffffffffff1673ffffffffffffffffffffffffffffffffffffffff16815260200190815260200160002060009054906101000a900473ffffffffffffffffffffffffffffffffffffffff16600160008473ffffffffffffffffffffffffffffffffffffffff1673ffffffffffffffffffffffffffffffffffffffff16815260200190815260200160002060006101000a81548173ffffffffffffffffffffffffffffffffffffffff021916908373ffffffffffffffffffffffffffffffffffffffff1602179055506000600160008373ffffffffffffffffffffffffffffffffffffffff1673ffffffffffffffffffffffffffffffffffffffff16815260200190815260200160002060006101000a81548173ffffffffffffffffffffffffffffffffffffffff021916908373ffffffffffffffffffffffffffffffffffffffff1602179055507faab4fa2b463f581b2b32cb3b7e3b704b9ce37cc209b5fb4d77e593ace405427681604051612b5791906155e1565b60405180910390a15050565b612b6b6138da565b600073ffffffffffffffffffffffffffffffffffffffff168173ffffffffffffffffffffffffffffffffffffffff1614612c88578073ffffffffffffffffffffffffffffffffffffffff166301ffc9a77fe6d7a83a000000000000000000000000000000000000000000000000000000006040518263ffffffff1660e01b8152600401612bf891906159ad565b60206040518083038186803b158015612c1057600080fd5b505afa158015612c24573d6000803e3d6000fd5b505050506040513d601f19601f82011682018060405250810190612c489190614cb9565b612c87576040517f08c379a0000000000000000000000000000000000000000000000000000000008152600401612c7e90615d03565b60405180910390fd5b5b60007f4a204f620c8c5ccdca3fd54d003badd85ba500436a431f0cbda4f558c93c34c860001b90508181557f1151116914515bc0891ff9047a6cb32cf902546f83066499bcf8ba33d2353fa282604051612ce291906155e1565b60405180910390a15050565b612cf66138da565b612d346040518060400160405280600581526020017f7072657620000000000000000000000000000000000000000000000000000000815250613a8c565b612d3d83614371565b612d4682614371565b612d4f81614371565b612d8d6040518060400160405280601581526020017f6f776e6572732063616e6e6f74206265206e756c6c0000000000000000000000815250613a8c565b600073ffffffffffffffffffffffffffffffffffffffff168173ffffffffffffffffffffffffffffffffffffffff1614158015612df75750600173ffffffffffffffffffffffffffffffffffffffff168173ffffffffffffffffffffffffffffffffffffffff1614155b8015612e2f57503073ffffffffffffffffffffffffffffffffffffffff168173ffffffffffffffffffffffffffffffffffffffff1614155b612e6e576040517f08c379a0000000000000000000000000000000000000000000000000000000008152600401612e6590615b23565b60405180910390fd5b612eac6040518060400160405280601381526020017f4e6f206475706c6963617465206f776e65727300000000000000000000000000815250613a8c565b600073ffffffffffffffffffffffffffffffffffffffff16600260008373ffffffffffffffffffffffffffffffffffffffff1673ffffffffffffffffffffffffffffffffffffffff16815260200190815260200160002060009054906101000a900473ffffffffffffffffffffffffffffffffffffffff1673ffffffffffffffffffffffffffffffffffffffff1614612f7a576040517f08c379a0000000000000000000000000000000000000000000000000000000008152600401612f7190615cc3565b60405180910390fd5b612f9b60405180606001604052806023815260200161682060239139613a8c565b600073ffffffffffffffffffffffffffffffffffffffff168273ffffffffffffffffffffffffffffffffffffffff16141580156130055750600173ffffffffffffffffffffffffffffffffffffffff168273ffffffffffffffffffffffffffffffffffffffff1614155b613044576040517f08c379a000000000000000000000000000000000000000000000000000000000815260040161303b90615b23565b60405180910390fd5b8173ffffffffffffffffffffffffffffffffffffffff16600260008573ffffffffffffffffffffffffffffffffffffffff1673ffffffffffffffffffffffffffffffffffffffff16815260200190815260200160002060009054906101000a900473ffffffffffffffffffffffffffffffffffffffff1673ffffffffffffffffffffffffffffffffffffffff1614613111576040517f08c379a000000000000000000000000000000000000000000000000000000000815260040161310890615d83565b60405180910390fd5b600260008373ffffffffffffffffffffffffffffffffffffffff1673ffffffffffffffffffffffffffffffffffffffff16815260200190815260200160002060009054906101000a900473ffffffffffffffffffffffffffffffffffffffff16600260008373ffffffffffffffffffffffffffffffffffffffff1673ffffffffffffffffffffffffffffffffffffffff16815260200190815260200160002060006101000a81548173ffffffffffffffffffffffffffffffffffffffff021916908373ffffffffffffffffffffffffffffffffffffffff16021790555080600260008573ffffffffffffffffffffffffffffffffffffffff1673ffffffffffffffffffffffffffffffffffffffff16815260200190815260200160002060006101000a81548173ffffffffffffffffffffffffffffffffffffffff021916908373ffffffffffffffffffffffffffffffffffffffff1602179055506000600260008473ffffffffffffffffffffffffffffffffffffffff1673ffffffffffffffffffffffffffffffffffffffff16815260200190815260200160002060006101000a81548173ffffffffffffffffffffffffffffffffffffffff021916908373ffffffffffffffffffffffffffffffffffffffff1602179055506133296040518060400160405280601481526020017f6f776e657273207377617020636f6d706c657465000000000000000000000000815250613a8c565b7ff8d49fc529812e9a7c5c50e69c20f0dccc0db8fa95c98bc58cc9a4f1c1299eaf8260405161335891906155e1565b60405180910390a17f9465fa0c962cc76958e6373a993326400c1c94f8be2fe3a952adfa7f60b2ea268160405161338f91906155e1565b60405180910390a1505050565b6000600454905090565b606060007fbb8310d486368db6bd6f849402fdd73ad53d316b5a4b2644ad6efe0f941286d860001b8d8d8d8d6040516133e0929190615570565b60405180910390208c8c8c8c8c8c8c6040516020016134099b9a99989796959493929190615834565b604051602081830303815290604052805190602001209050601960f81b600160f81b6134336134b3565b836040516020016134479493929190615522565b6040516020818303038152906040529150509b9a5050505050505050505050565b6134706138da565b6134798161416d565b7f5ac6c46c93c8d0e53714ba3b53db3e7c046da994313d7ed0d192028bc7c228b0816040516134a891906155e1565b60405180910390a150565b60007f47e79534a245952e8b16893a336b85a3d9ea9fa8c573f3d803afb92a7946921860001b6134e16114e7565b306040516020016134f493929190615931565b60405160208183030381529060405280519060200120905090565b6135176138da565b8060016003546135279190615faa565b1015613568576040517f08c379a000000000000000000000000000000000000000000000000000000000815260040161355f90615ac3565b60405180910390fd5b600073ffffffffffffffffffffffffffffffffffffffff168273ffffffffffffffffffffffffffffffffffffffff16141580156135d25750600173ffffffffffffffffffffffffffffffffffffffff168273ffffffffffffffffffffffffffffffffffffffff1614155b613611576040517f08c379a000000000000000000000000000000000000000000000000000000000815260040161360890615b23565b60405180910390fd5b8173ffffffffffffffffffffffffffffffffffffffff16600260008573ffffffffffffffffffffffffffffffffffffffff1673ffffffffffffffffffffffffffffffffffffffff16815260200190815260200160002060009054906101000a900473ffffffffffffffffffffffffffffffffffffffff1673ffffffffffffffffffffffffffffffffffffffff16146136de576040517f08c379a00000000000000000000000000000000000000000000000000000000081526004016136d590615d83565b60405180910390fd5b600260008373ffffffffffffffffffffffffffffffffffffffff1673ffffffffffffffffffffffffffffffffffffffff16815260200190815260200160002060009054906101000a900473ffffffffffffffffffffffffffffffffffffffff16600260008573ffffffffffffffffffffffffffffffffffffffff1673ffffffffffffffffffffffffffffffffffffffff16815260200190815260200160002060006101000a81548173ffffffffffffffffffffffffffffffffffffffff021916908373ffffffffffffffffffffffffffffffffffffffff1602179055506000600260008473ffffffffffffffffffffffffffffffffffffffff1673ffffffffffffffffffffffffffffffffffffffff16815260200190815260200160002060006101000a81548173ffffffffffffffffffffffffffffffffffffffff021916908373ffffffffffffffffffffffffffffffffffffffff1602179055506003600081548092919061384d90616166565b91905055507ff8d49fc529812e9a7c5c50e69c20f0dccc0db8fa95c98bc58cc9a4f1c1299eaf8260405161388191906155e1565b60405180910390a1806004541461389c5761389b81611b07565b5b505050565b6040518060400160405280600581526020017f312e332e3000000000000000000000000000000000000000000000000000000081525081565b3073ffffffffffffffffffffffffffffffffffffffff163373ffffffffffffffffffffffffffffffffffffffff1614613948576040517f08c379a000000000000000000000000000000000000000000000000000000000815260040161393f90615c83565b60405180910390fd5b565b60008083141561395d5760009050613989565b6000828461396b9190615f50565b905082848261397a9190615f1f565b1461398457600080fd5b809150505b92915050565b60008060008360410260208101860151925060408101860151915060ff60418201870151169350509250925092565b60008082846139cd9190615ec9565b9050838110156139dc57600080fd5b8091505092915050565b6000600180811115613a21577f4e487b7100000000000000000000000000000000000000000000000000000000600052602160045260246000fd5b836001811115613a5a577f4e487b7100000000000000000000000000000000000000000000000000000000600052602160045260246000fd5b1415613a73576000808551602087018986f49050613a83565b600080855160208701888a87f190505b95945050505050565b613b2281604051602401613aa09190615a21565b6040516020818303038152906040527f41304fac000000000000000000000000000000000000000000000000000000007bffffffffffffffffffffffffffffffffffffffffffffffffffffffff19166020820180517bffffffffffffffffffffffffffffffffffffffffffffffffffffffff838183161783525050505061440a565b50565b6000807f4a204f620c8c5ccdca3fd54d003badd85ba500436a431f0cbda4f558c93c34c860001b9050805491505090565b600081831015613b665781613b68565b825b905092915050565b600082821115613b7f57600080fd5b60008284613b8d9190615faa565b90508091505092915050565b600080600073ffffffffffffffffffffffffffffffffffffffff168373ffffffffffffffffffffffffffffffffffffffff1614613bd65782613bd8565b325b9050600073ffffffffffffffffffffffffffffffffffffffff168473ffffffffffffffffffffffffffffffffffffffff161415613cbd57613c423a8610613c1f573a613c21565b855b613c34888a6139be90919063ffffffff16565b61394a90919063ffffffff16565b91508073ffffffffffffffffffffffffffffffffffffffff166108fc839081150290604051600060405180830381858888f19350505050613cb8576040517f08c379a0000000000000000000000000000000000000000000000000000000008152600401613caf90615b63565b60405180910390fd5b613d2f565b613ce285613cd4888a6139be90919063ffffffff16565b61394a90919063ffffffff16565b9150613cef848284614433565b613d2e576040517f08c379a0000000000000000000000000000000000000000000000000000000008152600401613d2590615ba3565b60405180910390fd5b5b5095945050505050565b600060045414613d7e576040517f08c379a0000000000000000000000000000000000000000000000000000000008152600401613d7590615b03565b60405180910390fd5b8151811115613dc2576040517f08c379a0000000000000000000000000000000000000000000000000000000008152600401613db990615ac3565b60405180910390fd5b6001811015613e06576040517f08c379a0000000000000000000000000000000000000000000000000000000008152600401613dfd90615c43565b60405180910390fd5b60006001905060005b83518110156140d9576000848281518110613e53577f4e487b7100000000000000000000000000000000000000000000000000000000600052603260045260246000fd5b60200260200101519050600073ffffffffffffffffffffffffffffffffffffffff168173ffffffffffffffffffffffffffffffffffffffff1614158015613ec75750600173ffffffffffffffffffffffffffffffffffffffff168173ffffffffffffffffffffffffffffffffffffffff1614155b8015613eff57503073ffffffffffffffffffffffffffffffffffffffff168173ffffffffffffffffffffffffffffffffffffffff1614155b8015613f3757508073ffffffffffffffffffffffffffffffffffffffff168373ffffffffffffffffffffffffffffffffffffffff1614155b613f76576040517f08c379a0000000000000000000000000000000000000000000000000000000008152600401613f6d90615b23565b60405180910390fd5b600073ffffffffffffffffffffffffffffffffffffffff16600260008373ffffffffffffffffffffffffffffffffffffffff1673ffffffffffffffffffffffffffffffffffffffff16815260200190815260200160002060009054906101000a900473ffffffffffffffffffffffffffffffffffffffff1673ffffffffffffffffffffffffffffffffffffffff1614614044576040517f08c379a000000000000000000000000000000000000000000000000000000000815260040161403b90615cc3565b60405180910390fd5b80600260008573ffffffffffffffffffffffffffffffffffffffff1673ffffffffffffffffffffffffffffffffffffffff16815260200190815260200160002060006101000a81548173ffffffffffffffffffffffffffffffffffffffff021916908373ffffffffffffffffffffffffffffffffffffffff1602179055508092505080806140d1906161c1565b915050613e0f565b506001600260008373ffffffffffffffffffffffffffffffffffffffff1673ffffffffffffffffffffffffffffffffffffffff16815260200190815260200160002060006101000a81548173ffffffffffffffffffffffffffffffffffffffff021916908373ffffffffffffffffffffffffffffffffffffffff160217905550825160038190555081600481905550505050565b60007f6c9a6c4a39284e37ed1cf53d337577d14212a4870fb976a4366c693b939918d560001b90508181555050565b600073ffffffffffffffffffffffffffffffffffffffff1660016000600173ffffffffffffffffffffffffffffffffffffffff1673ffffffffffffffffffffffffffffffffffffffff16815260200190815260200160002060009054906101000a900473ffffffffffffffffffffffffffffffffffffffff1673ffffffffffffffffffffffffffffffffffffffff161461426b576040517f08c379a000000000000000000000000000000000000000000000000000000000815260040161426290615bc3565b60405180910390fd5b6001806000600173ffffffffffffffffffffffffffffffffffffffff1673ffffffffffffffffffffffffffffffffffffffff16815260200190815260200160002060006101000a81548173ffffffffffffffffffffffffffffffffffffffff021916908373ffffffffffffffffffffffffffffffffffffffff160217905550600073ffffffffffffffffffffffffffffffffffffffff168273ffffffffffffffffffffffffffffffffffffffff161461436d5761432d8260008360015a6139e6565b61436c576040517f08c379a000000000000000000000000000000000000000000000000000000000815260040161436390615b43565b60405180910390fd5b5b5050565b6144078160405160240161438591906155e1565b6040516020818303038152906040527f2c2ecbc2000000000000000000000000000000000000000000000000000000007bffffffffffffffffffffffffffffffffffffffffffffffffffffffff19166020820180517bffffffffffffffffffffffffffffffffffffffffffffffffffffffff838183161783525050505061440a565b50565b60008151905060006a636f6e736f6c652e6c6f679050602083016000808483855afa5050505050565b60008063a9059cbb848460405160240161444e9291906155fc565b6040516020818303038152906040529060e01b6020820180517bffffffffffffffffffffffffffffffffffffffffffffffffffffffff83818316178352505050509050602060008251602084016000896127105a03f13d600081146144be57602081146144c657600093506144d1565b8193506144d1565b600051158215171593505b5050509392505050565b60006144ee6144e984615de3565b615dbe565b90508281526020810184848401111561450657600080fd5b614511848285616124565b509392505050565b60008135905061452881616785565b92915050565b60008135905061453d8161679c565b92915050565b60008083601f84011261455557600080fd5b8235905067ffffffffffffffff81111561456e57600080fd5b60208301915083602082028301111561458657600080fd5b9250929050565b60008151905061459c816167b3565b92915050565b6000813590506145b1816167ca565b92915050565b6000815190506145c6816167e1565b92915050565b60008083601f8401126145de57600080fd5b8235905067ffffffffffffffff8111156145f757600080fd5b60208301915083600182028301111561460f57600080fd5b9250929050565b600082601f83011261462757600080fd5b81356146378482602086016144db565b91505092915050565b60008135905061464f816167f8565b92915050565b60008135905061466481616808565b92915050565b60006020828403121561467c57600080fd5b600061468a84828501614519565b91505092915050565b600080604083850312156146a657600080fd5b60006146b485828601614519565b92505060206146c585828601614519565b9150509250929050565b6000806000606084860312156146e457600080fd5b60006146f286828701614519565b935050602061470386828701614519565b925050604061471486828701614519565b9150509250925092565b60008060006060848603121561473357600080fd5b600061474186828701614519565b935050602061475286828701614519565b925050604061476386828701614655565b9150509250925092565b60008060008060008060a0878903121561478657600080fd5b600061479489828a01614519565b96505060206147a589828a01614519565b95505060406147b689828a01614655565b945050606087013567ffffffffffffffff8111156147d357600080fd5b6147df89828a016145cc565b935093505060806147f289828a01614640565b9150509295509295509295565b6000806040838503121561481257600080fd5b600061482085828601614519565b9250506020614831858286016145a2565b9150509250929050565b6000806040838503121561484e57600080fd5b600061485c85828601614519565b925050602083013567ffffffffffffffff81111561487957600080fd5b61488585828601614616565b9150509250929050565b600080604083850312156148a257600080fd5b60006148b085828601614519565b92505060206148c185828601614655565b9150509250929050565b6000806000806000608086880312156148e357600080fd5b60006148f188828901614519565b955050602061490288828901614655565b945050604086013567ffffffffffffffff81111561491f57600080fd5b61492b888289016145cc565b9350935050606061493e88828901614640565b9150509295509295909350565b60008060008060008060008060008060006101408c8e03121561496d57600080fd5b600061497b8e828f01614519565b9b5050602061498c8e828f01614655565b9a505060408c013567ffffffffffffffff8111156149a957600080fd5b6149b58e828f016145cc565b995099505060606149c88e828f01614640565b97505060806149d98e828f01614655565b96505060a06149ea8e828f01614655565b95505060c06149fb8e828f01614655565b94505060e0614a0c8e828f01614519565b935050610100614a1e8e828f0161452e565b9250506101208c013567ffffffffffffffff811115614a3c57600080fd5b614a488e828f01614616565b9150509295989b509295989b9093969950565b60008060008060008060008060008060006101408c8e031215614a7d57600080fd5b6000614a8b8e828f01614519565b9b50506020614a9c8e828f01614655565b9a505060408c013567ffffffffffffffff811115614ab957600080fd5b614ac58e828f016145cc565b99509950506060614ad88e828f01614640565b9750506080614ae98e828f01614655565b96505060a0614afa8e828f01614655565b95505060c0614b0b8e828f01614655565b94505060e0614b1c8e828f01614519565b935050610100614b2e8e828f01614519565b925050610120614b408e828f01614655565b9150509295989b509295989b9093969950565b60008060008060808587031215614b6957600080fd5b6000614b7787828801614519565b9450506020614b8887828801614655565b935050604085013567ffffffffffffffff811115614ba557600080fd5b614bb187828801614616565b9250506060614bc287828801614640565b91505092959194509250565b6000806000806000806000806000806101008b8d031215614bee57600080fd5b60008b013567ffffffffffffffff811115614c0857600080fd5b614c148d828e01614543565b9a509a50506020614c278d828e01614655565b9850506040614c388d828e01614519565b97505060608b013567ffffffffffffffff811115614c5557600080fd5b614c618d828e016145cc565b96509650506080614c748d828e01614519565b94505060a0614c858d828e01614519565b93505060c0614c968d828e01614655565b92505060e0614ca78d828e0161452e565b9150509295989b9194979a5092959850565b600060208284031215614ccb57600080fd5b6000614cd98482850161458d565b91505092915050565b600060208284031215614cf457600080fd5b6000614d02848285016145a2565b91505092915050565b600080600060608486031215614d2057600080fd5b6000614d2e868287016145a2565b935050602084013567ffffffffffffffff811115614d4b57600080fd5b614d5786828701614616565b925050604084013567ffffffffffffffff811115614d7457600080fd5b614d8086828701614616565b9150509250925092565b60008060008060808587031215614da057600080fd5b6000614dae878288016145a2565b945050602085013567ffffffffffffffff811115614dcb57600080fd5b614dd787828801614616565b935050604085013567ffffffffffffffff811115614df457600080fd5b614e0087828801614616565b9250506060614e1187828801614655565b91505092959194509250565b600060208284031215614e2f57600080fd5b6000614e3d848285016145b7565b91505092915050565b600060208284031215614e5857600080fd5b6000614e6684828501614655565b91505092915050565b60008060408385031215614e8257600080fd5b6000614e9085828601614655565b9250506020614ea185828601614655565b9150509250929050565b6000614eb78383614ed2565b60208301905092915050565b614ecc81616024565b82525050565b614edb81616012565b82525050565b614eea81616012565b82525050565b6000614efc8385615e69565b9350614f0782615e14565b8060005b85811015614f4057614f1d8284615eb2565b614f278882614eab565b9750614f3283615e4f565b925050600181019050614f0b565b5085925050509392505050565b6000614f5882615e2e565b614f628185615e69565b9350614f6d83615e1e565b8060005b83811015614f9e578151614f858882614eab565b9750614f9083615e5c565b925050600181019050614f71565b5085935050505092915050565b614fb481616036565b82525050565b614fcb614fc682616042565b61620a565b82525050565b614fda8161606e565b82525050565b614ff1614fec8261606e565b616214565b82525050565b61500081616078565b82525050565b60006150128385615e7a565b935061501f838584616124565b615028836162e4565b840190509392505050565b600061503f8385615e8b565b935061504c838584616124565b82840190509392505050565b600061506382615e39565b61506d8185615e7a565b935061507d818560208601616133565b615086816162e4565b840191505092915050565b600061509c82615e39565b6150a68185615e8b565b93506150b6818560208601616133565b80840191505092915050565b6150cb816160ee565b82525050565b6150da81616112565b82525050565b60006150eb82615e44565b6150f58185615e96565b9350615105818560208601616133565b61510e816162e4565b840191505092915050565b6000615126600583615e96565b9150615131826162f5565b602082019050919050565b6000615149600583615e96565b91506151548261631e565b602082019050919050565b600061516c601c83615ea7565b915061517782616347565b601c82019050919050565b600061518f600583615e96565b915061519a82616370565b602082019050919050565b60006151b2600583615e96565b91506151bd82616399565b602082019050919050565b60006151d5600583615e96565b91506151e0826163c2565b602082019050919050565b60006151f8600583615e96565b9150615203826163eb565b602082019050919050565b600061521b600583615e96565b915061522682616414565b602082019050919050565b600061523e600583615e96565b91506152498261643d565b602082019050919050565b6000615261600583615e96565b915061526c82616466565b602082019050919050565b6000615284600583615e96565b915061528f8261648f565b602082019050919050565b60006152a7600583615e96565b91506152b2826164b8565b602082019050919050565b60006152ca600583615e96565b91506152d5826164e1565b602082019050919050565b60006152ed600583615e96565b91506152f88261650a565b602082019050919050565b6000615310600583615e96565b915061531b82616533565b602082019050919050565b6000615333600583615e96565b915061533e8261655c565b602082019050919050565b6000615356600583615e96565b915061536182616585565b602082019050919050565b6000615379600583615e96565b9150615384826165ae565b602082019050919050565b600061539c600583615e96565b91506153a7826165d7565b602082019050919050565b60006153bf600583615e96565b91506153ca82616600565b602082019050919050565b60006153e2600583615e96565b91506153ed82616629565b602082019050919050565b6000615405600583615e96565b915061541082616652565b602082019050919050565b6000615428600583615e96565b91506154338261667b565b602082019050919050565b600061544b600583615e96565b9150615456826166a4565b602082019050919050565b600061546e600583615e96565b9150615479826166cd565b602082019050919050565b6000615491600583615e96565b915061549c826166f6565b602082019050919050565b60006154b4600583615e96565b91506154bf8261671f565b602082019050919050565b60006154d7600583615e96565b91506154e282616748565b602082019050919050565b6154f6816160d7565b82525050565b61550d615508826160d7565b61621e565b82525050565b61551c816160e1565b82525050565b600061552e8287614fba565b60018201915061553e8286614fba565b60018201915061554e8285614fe0565b60208201915061555e8284614fe0565b60208201915081905095945050505050565b600061557d828486615033565b91508190509392505050565b60006155958284615091565b915081905092915050565b60006155ab8261515f565b91506155b78284614fe0565b60208201915081905092915050565b60006155d282846154fc565b60208201915081905092915050565b60006020820190506155f66000830184614ee1565b92915050565b60006040820190506156116000830185614ee1565b61561e60208301846154ed565b9392505050565b600060808201905061563a6000830188614ee1565b61564760208301876154ed565b818103604083015261565a818587615006565b905061566960608301846150d1565b9695505050505050565b600061016082019050615689600083018f614ee1565b615696602083018e6154ed565b81810360408301526156a9818c8e615006565b90506156b8606083018b6150d1565b6156c5608083018a6154ed565b6156d260a08301896154ed565b6156df60c08301886154ed565b6156ec60e0830187614ee1565b6156fa610100830186614ec3565b81810361012083015261570d8185615058565b905061571d610140830184614ee1565b9d9c50505050505050505050505050565b60006080820190508181036000830152615749818789614ef0565b905061575860208301866154ed565b6157656040830185614ee1565b6157726060830184614ee1565b9695505050505050565b600060208201905081810360008301526157968184614f4d565b905092915050565b600060408201905081810360008301526157b88185614f4d565b90506157c76020830184614ee1565b9392505050565b60006020820190506157e36000830184614fab565b92915050565b60006040820190506157fe6000830185614fab565b81810360208301526158108184615058565b90509392505050565b600060208201905061582e6000830184614fd1565b92915050565b60006101608201905061584a600083018e614fd1565b615857602083018d614ee1565b615864604083018c6154ed565b615871606083018b614fd1565b61587e608083018a6150d1565b61588b60a08301896154ed565b61589860c08301886154ed565b6158a560e08301876154ed565b6158b3610100830186614ee1565b6158c1610120830185614ee1565b6158cf6101408301846154ed565b9c9b505050505050505050505050565b60006040820190506158f46000830185614fd1565b6159016020830184614fab565b9392505050565b600060408201905061591d6000830185614fd1565b61592a60208301846154ed565b9392505050565b60006060820190506159466000830186614fd1565b61595360208301856154ed565b61596060408301846150c2565b949350505050565b600060808201905061597d6000830187614fd1565b61598a6020830186615513565b6159976040830185614fd1565b6159a46060830184614fd1565b95945050505050565b60006020820190506159c26000830184614ff7565b92915050565b600060208201905081810360008301526159e28184615058565b905092915050565b60006040820190508181036000830152615a048185615058565b90508181036020830152615a188184615058565b90509392505050565b60006020820190508181036000830152615a3b81846150e0565b905092915050565b60006020820190508181036000830152615a5c81615119565b9050919050565b60006020820190508181036000830152615a7c8161513c565b9050919050565b60006020820190508181036000830152615a9c81615182565b9050919050565b60006020820190508181036000830152615abc816151a5565b9050919050565b60006020820190508181036000830152615adc816151c8565b9050919050565b60006020820190508181036000830152615afc816151eb565b9050919050565b60006020820190508181036000830152615b1c8161520e565b9050919050565b60006020820190508181036000830152615b3c81615231565b9050919050565b60006020820190508181036000830152615b5c81615254565b9050919050565b60006020820190508181036000830152615b7c81615277565b9050919050565b60006020820190508181036000830152615b9c8161529a565b9050919050565b60006020820190508181036000830152615bbc816152bd565b9050919050565b60006020820190508181036000830152615bdc816152e0565b9050919050565b60006020820190508181036000830152615bfc81615303565b9050919050565b60006020820190508181036000830152615c1c81615326565b9050919050565b60006020820190508181036000830152615c3c81615349565b9050919050565b60006020820190508181036000830152615c5c8161536c565b9050919050565b60006020820190508181036000830152615c7c8161538f565b9050919050565b60006020820190508181036000830152615c9c816153b2565b9050919050565b60006020820190508181036000830152615cbc816153d5565b9050919050565b60006020820190508181036000830152615cdc816153f8565b9050919050565b60006020820190508181036000830152615cfc8161541b565b9050919050565b60006020820190508181036000830152615d1c8161543e565b9050919050565b60006020820190508181036000830152615d3c81615461565b9050919050565b60006020820190508181036000830152615d5c81615484565b9050919050565b60006020820190508181036000830152615d7c816154a7565b9050919050565b60006020820190508181036000830152615d9c816154ca565b9050919050565b6000602082019050615db860008301846154ed565b92915050565b6000615dc8615dd9565b9050615dd48282616190565b919050565b6000604051905090565b600067ffffffffffffffff821115615dfe57615dfd6162b5565b5b615e07826162e4565b9050602081019050919050565b6000819050919050565b6000819050602082019050919050565b600081519050919050565b600081519050919050565b600081519050919050565b6000602082019050919050565b6000602082019050919050565b600082825260208201905092915050565b600082825260208201905092915050565b600081905092915050565b600082825260208201905092915050565b600081905092915050565b6000615ec16020840184614519565b905092915050565b6000615ed4826160d7565b9150615edf836160d7565b9250827fffffffffffffffffffffffffffffffffffffffffffffffffffffffffffffffff03821115615f1457615f13616228565b5b828201905092915050565b6000615f2a826160d7565b9150615f35836160d7565b925082615f4557615f44616257565b5b828204905092915050565b6000615f5b826160d7565b9150615f66836160d7565b9250817fffffffffffffffffffffffffffffffffffffffffffffffffffffffffffffffff0483118215151615615f9f57615f9e616228565b5b828202905092915050565b6000615fb5826160d7565b9150615fc0836160d7565b925082821015615fd357615fd2616228565b5b828203905092915050565b6000615fe9826160e1565b9150615ff4836160e1565b92508282101561600757616006616228565b5b828203905092915050565b600061601d826160b7565b9050919050565b600061602f826160b7565b9050919050565b60008115159050919050565b60007fff0000000000000000000000000000000000000000000000000000000000000082169050919050565b6000819050919050565b60007fffffffff0000000000000000000000000000000000000000000000000000000082169050919050565b60008190506160b282616771565b919050565b600073ffffffffffffffffffffffffffffffffffffffff82169050919050565b6000819050919050565b600060ff82169050919050565b60006160f982616100565b9050919050565b600061610b826160b7565b9050919050565b600061611d826160a4565b9050919050565b82818337600083830152505050565b60005b83811015616151578082015181840152602081019050616136565b83811115616160576000848401525b50505050565b6000616171826160d7565b9150600082141561618557616184616228565b5b600182039050919050565b616199826162e4565b810181811067ffffffffffffffff821117156161b8576161b76162b5565b5b80604052505050565b60006161cc826160d7565b91507fffffffffffffffffffffffffffffffffffffffffffffffffffffffffffffffff8214156161ff576161fe616228565b5b600182019050919050565b6000819050919050565b6000819050919050565b6000819050919050565b7f4e487b7100000000000000000000000000000000000000000000000000000000600052601160045260246000fd5b7f4e487b7100000000000000000000000000000000000000000000000000000000600052601260045260246000fd5b7f4e487b7100000000000000000000000000000000000000000000000000000000600052602160045260246000fd5b7f4e487b7100000000000000000000000000000000000000000000000000000000600052604160045260246000fd5b6000601f19601f8301169050919050565b7f4753303233000000000000000000000000000000000000000000000000000000600082015250565b7f4753303236000000000000000000000000000000000000000000000000000000600082015250565b7f19457468657265756d205369676e6564204d6573736167653a0a333200000000600082015250565b7f4753303234000000000000000000000000000000000000000000000000000000600082015250565b7f4753303330000000000000000000000000000000000000000000000000000000600082015250565b7f4753323031000000000000000000000000000000000000000000000000000000600082015250565b7f4753303232000000000000000000000000000000000000000000000000000000600082015250565b7f4753323030000000000000000000000000000000000000000000000000000000600082015250565b7f4753323033000000000000000000000000000000000000000000000000000000600082015250565b7f4753303030000000000000000000000000000000000000000000000000000000600082015250565b7f4753303131000000000000000000000000000000000000000000000000000000600082015250565b7f4753313033000000000000000000000000000000000000000000000000000000600082015250565b7f4753303132000000000000000000000000000000000000000000000000000000600082015250565b7f4753313030000000000000000000000000000000000000000000000000000000600082015250565b7f4753303031000000000000000000000000000000000000000000000000000000600082015250565b7f4753303133000000000000000000000000000000000000000000000000000000600082015250565b7f4753303130000000000000000000000000000000000000000000000000000000600082015250565b7f4753323032000000000000000000000000000000000000000000000000000000600082015250565b7f4753313034000000000000000000000000000000000000000000000000000000600082015250565b7f4753303331000000000000000000000000000000000000000000000000000000600082015250565b7f4753303235000000000000000000000000000000000000000000000000000000600082015250565b7f4753323034000000000000000000000000000000000000000000000000000000600082015250565b7f4753313032000000000000000000000000000000000000000000000000000000600082015250565b7f4753333030000000000000000000000000000000000000000000000000000000600082015250565b7f4753303231000000000000000000000000000000000000000000000000000000600082015250565b7f4753313031000000000000000000000000000000000000000000000000000000600082015250565b7f4753303230000000000000000000000000000000000000000000000000000000600082015250565b7f4753323035000000000000000000000000000000000000000000000000000000600082015250565b6002811061678257616781616286565b5b50565b61678e81616012565b811461679957600080fd5b50565b6167a581616024565b81146167b057600080fd5b50565b6167bc81616036565b81146167c757600080fd5b50565b6167d38161606e565b81146167de57600080fd5b50565b6167ea81616078565b81146167f557600080fd5b50565b6002811061680557600080fd5b50565b616811816160d7565b811461681c57600080fd5b5056fe56616c6964617465206f6c644f776e6572206164647265737320616e6420636865636ba2646970667358221220a8f588fca60d952f185140342242a87f0e6350e924c587b0795f466a952d196164736f6c63430008040033",
  "devdoc": {
    "kind": "dev",
    "methods": {
      "addOwnerWithThreshold(address,uint256)": {
        "details": "Allows to add a new owner to the Safe and update the threshold at the same time.      This can only be done via a Safe transaction.",
        "params": {
          "_threshold": "New threshold.",
          "owner": "New owner address."
        }
      },
      "approveHash(bytes32)": {
        "details": "Marks a hash as approved. This can be used to validate a hash that is used by a signature.",
        "params": {
          "hashToApprove": "The hash that should be marked as approved for signatures that are verified by this contract."
        }
      },
      "changeThreshold(uint256)": {
        "details": "Allows to update the number of required confirmations by Safe owners.      This can only be done via a Safe transaction.",
        "params": {
          "_threshold": "New threshold."
        }
      },
      "checkNSignatures(bytes32,bytes,bytes,uint256)": {
        "details": "Checks whether the signature provided is valid for the provided data, hash. Will revert otherwise.",
        "params": {
          "data": "That should be signed (this is passed to an external validator contract)",
          "dataHash": "Hash of the data (could be either a message hash or transaction hash)",
          "requiredSignatures": "Amount of required valid signatures.",
          "signatures": "Signature data that should be verified. Can be ECDSA signature, contract signature (EIP-1271) or approved hash."
        }
      },
      "checkSignatures(bytes32,bytes,bytes)": {
        "details": "Checks whether the signature provided is valid for the provided data, hash. Will revert otherwise.",
        "params": {
          "data": "That should be signed (this is passed to an external validator contract)",
          "dataHash": "Hash of the data (could be either a message hash or transaction hash)",
          "signatures": "Signature data that should be verified. Can be ECDSA signature, contract signature (EIP-1271) or approved hash."
        }
      },
      "disableModule(address,address)": {
        "details": "Allows to remove a module from the whitelist.      This can only be done via a Safe transaction.",
        "params": {
          "module": "Module to be removed.",
          "prevModule": "Module that pointed to the module to be removed in the linked list"
        }
      },
      "enableModule(address)": {
        "details": "Allows to add a module to the whitelist.      This can only be done via a Safe transaction.",
        "params": {
          "module": "Module to be whitelisted."
        }
      },
      "encodeTransactionData(address,uint256,bytes,uint8,uint256,uint256,uint256,address,address,uint256)": {
        "details": "Returns the bytes that are hashed to be signed by owners.",
        "params": {
          "_nonce": "Transaction nonce.",
          "baseGas": "Gas costs for that are independent of the transaction execution(e.g. base transaction fee, signature check, payment of the refund)",
          "data": "Data payload.",
          "gasPrice": "Maximum gas price that should be used for this transaction.",
          "gasToken": "Token address (or 0 if ETH) that is used for the payment.",
          "operation": "Operation type.",
          "refundReceiver": "Address of receiver of gas payment (or 0 if tx.origin).",
          "safeTxGas": "Gas that should be used for the safe transaction.",
          "to": "Destination address.",
          "value": "Ether value."
        },
        "returns": {
          "_0": "Transaction hash bytes."
        }
      },
      "execTransaction(address,uint256,bytes,uint8,uint256,uint256,uint256,address,address,bytes)": {
        "details": "Allows to execute a Safe transaction confirmed by required number of owners and then pays the account that submitted the transaction.      Note: The fees are always transferred, even if the user transaction fails.",
        "params": {
          "baseGas": "Gas costs that are independent of the transaction execution(e.g. base transaction fee, signature check, payment of the refund)",
          "data": "Data payload of Safe transaction.",
          "gasPrice": "Gas price that should be used for the payment calculation.",
          "gasToken": "Token address (or 0 if ETH) that is used for the payment.",
          "operation": "Operation type of Safe transaction.",
          "refundReceiver": "Address of receiver of gas payment (or 0 if tx.origin).",
          "safeTxGas": "Gas that should be used for the Safe transaction.",
          "signatures": "Packed signature data ({bytes32 r}{bytes32 s}{uint8 v})",
          "to": "Destination address of Safe transaction.",
          "value": "Ether value of Safe transaction."
        }
      },
      "execTransactionFromModule(address,uint256,bytes,uint8)": {
        "details": "Allows a Module to execute a Safe transaction without any further confirmations.",
        "params": {
          "data": "Data payload of module transaction.",
          "operation": "Operation type of module transaction.",
          "to": "Destination address of module transaction.",
          "value": "Ether value of module transaction."
        }
      },
      "execTransactionFromModuleReturnData(address,uint256,bytes,uint8)": {
        "details": "Allows a Module to execute a Safe transaction without any further confirmations and return data",
        "params": {
          "data": "Data payload of module transaction.",
          "operation": "Operation type of module transaction.",
          "to": "Destination address of module transaction.",
          "value": "Ether value of module transaction."
        }
      },
      "getChainId()": {
        "details": "Returns the chain id used by this contract."
      },
      "getModulesPaginated(address,uint256)": {
        "details": "Returns array of modules.",
        "params": {
          "pageSize": "Maximum number of modules that should be returned.",
          "start": "Start of the page."
        },
        "returns": {
          "array": "Array of modules.",
          "next": "Start of the next page."
        }
      },
      "getOwners()": {
        "details": "Returns array of owners.",
        "returns": {
          "_0": "Array of Safe owners."
        }
      },
      "getStorageAt(uint256,uint256)": {
        "details": "Reads `length` bytes of storage in the currents contract",
        "params": {
          "length": "- the number of words (32 bytes) of data to read",
          "offset": "- the offset in the current contract's storage in words to start reading from"
        },
        "returns": {
          "_0": "the bytes that were read."
        }
      },
      "getTransactionHash(address,uint256,bytes,uint8,uint256,uint256,uint256,address,address,uint256)": {
        "details": "Returns hash to be signed by owners.",
        "params": {
          "_nonce": "Transaction nonce.",
          "baseGas": "Gas costs for data used to trigger the safe transaction.",
          "data": "Data payload.",
          "gasPrice": "Maximum gas price that should be used for this transaction.",
          "gasToken": "Token address (or 0 if ETH) that is used for the payment.",
          "operation": "Operation type.",
          "refundReceiver": "Address of receiver of gas payment (or 0 if tx.origin).",
          "safeTxGas": "Fas that should be used for the safe transaction.",
          "to": "Destination address.",
          "value": "Ether value."
        },
        "returns": {
          "_0": "Transaction hash."
        }
      },
      "isModuleEnabled(address)": {
        "details": "Returns if an module is enabled",
        "returns": {
          "_0": "True if the module is enabled"
        }
      },
      "removeOwner(address,address,uint256)": {
        "details": "Allows to remove an owner from the Safe and update the threshold at the same time.      This can only be done via a Safe transaction.",
        "params": {
          "_threshold": "New threshold.",
          "owner": "Owner address to be removed.",
          "prevOwner": "Owner that pointed to the owner to be removed in the linked list"
        }
      },
      "requiredTxGas(address,uint256,bytes,uint8)": {
        "details": "Allows to estimate a Safe transaction.      This method is only meant for estimation purpose, therefore the call will always revert and encode the result in the revert data.      Since the `estimateGas` function includes refunds, call this method to get an estimated of the costs that are deducted from the safe with `execTransaction`",
        "params": {
          "data": "Data payload of Safe transaction.",
          "operation": "Operation type of Safe transaction.",
          "to": "Destination address of Safe transaction.",
          "value": "Ether value of Safe transaction."
        },
        "returns": {
          "_0": "Estimate without refunds and overhead fees (base transaction and payload data gas costs)."
        }
      },
      "setFallbackHandler(address)": {
        "details": "Allows to add a contract to handle fallback calls.      Only fallback calls without value and with data will be forwarded.      This can only be done via a Safe transaction.",
        "params": {
          "handler": "contract to handle fallback calls."
        }
      },
      "setGuard(address)": {
        "details": "Set a guard that checks transactions before execution",
        "params": {
          "guard": "The address of the guard to be used or the 0 address to disable the guard"
        }
      },
      "setup(address[],uint256,address,bytes,address,address,uint256,address)": {
        "details": "Setup function sets initial storage of contract.",
        "params": {
          "_owners": "List of Safe owners.",
          "_threshold": "Number of required confirmations for a Safe transaction.",
          "data": "Data payload for optional delegate call.",
          "fallbackHandler": "Handler for fallback calls to this contract",
          "payment": "Value that should be paid",
          "paymentReceiver": "Address that should receive the payment (or 0 if tx.origin)",
          "paymentToken": "Token that should be used for the payment (0 is ETH)",
          "to": "Contract address for optional delegate call."
        }
      },
      "simulateAndRevert(address,bytes)": {
        "details": "Performs a delegatecall on a targetContract in the context of self. Internally reverts execution to avoid side effects (making it static). This method reverts with data equal to `abi.encode(bool(success), bytes(response))`. Specifically, the `returndata` after a call to this method will be: `success:bool || response.length:uint256 || response:bytes`.",
        "params": {
          "calldataPayload": "Calldata that should be sent to the target contract (encoded method name and arguments).",
          "targetContract": "Address of the contract containing the code to execute."
        }
      },
      "swapOwner(address,address,address)": {
        "details": "Allows to swap/replace an owner from the Safe with another address.      This can only be done via a Safe transaction.",
        "params": {
          "newOwner": "New owner address.",
          "oldOwner": "Owner address to be replaced.",
          "prevOwner": "Owner that pointed to the owner to be replaced in the linked list"
        }
      }
    },
    "version": 1
  },
  "userdoc": {
    "kind": "user",
    "methods": {
      "addOwnerWithThreshold(address,uint256)": {
        "notice": "Adds the owner `owner` to the Safe and updates the threshold to `_threshold`."
      },
      "changeThreshold(uint256)": {
        "notice": "Changes the threshold of the Safe to `_threshold`."
      },
      "disableModule(address,address)": {
        "notice": "Disables the module `module` for the Safe."
      },
      "enableModule(address)": {
        "notice": "Enables the module `module` for the Safe."
      },
      "removeOwner(address,address,uint256)": {
        "notice": "Removes the owner `owner` from the Safe and updates the threshold to `_threshold`."
      },
      "requiredTxGas(address,uint256,bytes,uint8)": {
        "notice": "Deprecated in favor of common/StorageAccessible.sol and will be removed in next version."
      },
      "swapOwner(address,address,address)": {
        "notice": "Replaces the owner `oldOwner` in the Safe with `newOwner`."
      }
    },
    "version": 1
  },
  "storageLayout": {
    "storage": [
      {
        "astId": 2801,
        "contract": "contracts/deps/Deps_V1_3_0.sol:GnosisSafe_SV1_3_0",
        "label": "singleton",
        "offset": 0,
        "slot": "0",
        "type": "t_address"
      },
      {
        "astId": 1797,
        "contract": "contracts/deps/Deps_V1_3_0.sol:GnosisSafe_SV1_3_0",
        "label": "modules",
        "offset": 0,
        "slot": "1",
        "type": "t_mapping(t_address,t_address)"
      },
      {
        "astId": 2163,
        "contract": "contracts/deps/Deps_V1_3_0.sol:GnosisSafe_SV1_3_0",
        "label": "owners",
        "offset": 0,
        "slot": "2",
        "type": "t_mapping(t_address,t_address)"
      },
      {
        "astId": 2165,
        "contract": "contracts/deps/Deps_V1_3_0.sol:GnosisSafe_SV1_3_0",
        "label": "ownerCount",
        "offset": 0,
        "slot": "3",
        "type": "t_uint256"
      },
      {
        "astId": 2167,
        "contract": "contracts/deps/Deps_V1_3_0.sol:GnosisSafe_SV1_3_0",
        "label": "threshold",
        "offset": 0,
        "slot": "4",
        "type": "t_uint256"
      },
      {
        "astId": 422,
        "contract": "contracts/deps/Deps_V1_3_0.sol:GnosisSafe_SV1_3_0",
        "label": "nonce",
        "offset": 0,
        "slot": "5",
        "type": "t_uint256"
      },
      {
        "astId": 424,
        "contract": "contracts/deps/Deps_V1_3_0.sol:GnosisSafe_SV1_3_0",
        "label": "_deprecatedDomainSeparator",
        "offset": 0,
        "slot": "6",
        "type": "t_bytes32"
      },
      {
        "astId": 428,
        "contract": "contracts/deps/Deps_V1_3_0.sol:GnosisSafe_SV1_3_0",
        "label": "signedMessages",
        "offset": 0,
        "slot": "7",
        "type": "t_mapping(t_bytes32,t_uint256)"
      },
      {
        "astId": 434,
        "contract": "contracts/deps/Deps_V1_3_0.sol:GnosisSafe_SV1_3_0",
        "label": "approvedHashes",
        "offset": 0,
        "slot": "8",
        "type": "t_mapping(t_address,t_mapping(t_bytes32,t_uint256))"
      }
    ],
    "types": {
      "t_address": {
        "encoding": "inplace",
        "label": "address",
        "numberOfBytes": "20"
      },
      "t_bytes32": {
        "encoding": "inplace",
        "label": "bytes32",
        "numberOfBytes": "32"
      },
      "t_mapping(t_address,t_address)": {
        "encoding": "mapping",
        "key": "t_address",
        "label": "mapping(address => address)",
        "numberOfBytes": "32",
        "value": "t_address"
      },
      "t_mapping(t_address,t_mapping(t_bytes32,t_uint256))": {
        "encoding": "mapping",
        "key": "t_address",
        "label": "mapping(address => mapping(bytes32 => uint256))",
        "numberOfBytes": "32",
        "value": "t_mapping(t_bytes32,t_uint256)"
      },
      "t_mapping(t_bytes32,t_uint256)": {
        "encoding": "mapping",
        "key": "t_bytes32",
        "label": "mapping(bytes32 => uint256)",
        "numberOfBytes": "32",
        "value": "t_uint256"
      },
      "t_uint256": {
        "encoding": "inplace",
        "label": "uint256",
        "numberOfBytes": "32"
      }
    }
  }
}