{
  "address": "0xDE1B6D1629F24cc20a5032370dA3be14886404C9",
  "abi": [
    {
      "anonymous": false,
      "inputs": [
        {
          "indexed": false,
          "internalType": "address",
          "name": "owner",
          "type": "address"
        }
      ],
      "name": "AddedOwner",
      "type": "event"
    },
    {
      "anonymous": false,
      "inputs": [
        {
          "indexed": true,
          "internalType": "bytes32",
          "name": "approvedHash",
          "type": "bytes32"
        },
        {
          "indexed": true,
          "internalType": "address",
          "name": "owner",
          "type": "address"
        }
      ],
      "name": "ApproveHash",
      "type": "event"
    },
    {
      "anonymous": false,
      "inputs": [
        {
          "indexed": false,
          "internalType": "address",
          "name": "handler",
          "type": "address"
        }
      ],
      "name": "ChangedFallbackHandler",
      "type": "event"
    },
    {
      "anonymous": false,
      "inputs": [
        {
          "indexed": false,
          "internalType": "address",
          "name": "guard",
          "type": "address"
        }
      ],
      "name": "ChangedGuard",
      "type": "event"
    },
    {
      "anonymous": false,
      "inputs": [
        {
          "indexed": false,
          "internalType": "uint256",
          "name": "threshold",
          "type": "uint256"
        }
      ],
      "name": "ChangedThreshold",
      "type": "event"
    },
    {
      "anonymous": false,
      "inputs": [
        {
          "indexed": false,
          "internalType": "address",
          "name": "module",
          "type": "address"
        }
      ],
      "name": "DisabledModule",
      "type": "event"
    },
    {
      "anonymous": false,
      "inputs": [
        {
          "indexed": false,
          "internalType": "address",
          "name": "module",
          "type": "address"
        }
      ],
      "name": "EnabledModule",
      "type": "event"
    },
    {
      "anonymous": false,
      "inputs": [
        {
          "indexed": false,
          "internalType": "bytes32",
          "name": "txHash",
          "type": "bytes32"
        },
        {
          "indexed": false,
          "internalType": "uint256",
          "name": "payment",
          "type": "uint256"
        }
      ],
      "name": "ExecutionFailure",
      "type": "event"
    },
    {
      "anonymous": false,
      "inputs": [
        {
          "indexed": true,
          "internalType": "address",
          "name": "module",
          "type": "address"
        }
      ],
      "name": "ExecutionFromModuleFailure",
      "type": "event"
    },
    {
      "anonymous": false,
      "inputs": [
        {
          "indexed": true,
          "internalType": "address",
          "name": "module",
          "type": "address"
        }
      ],
      "name": "ExecutionFromModuleSuccess",
      "type": "event"
    },
    {
      "anonymous": false,
      "inputs": [
        {
          "indexed": false,
          "internalType": "bytes32",
          "name": "txHash",
          "type": "bytes32"
        },
        {
          "indexed": false,
          "internalType": "uint256",
          "name": "payment",
          "type": "uint256"
        }
      ],
      "name": "ExecutionSuccess",
      "type": "event"
    },
    {
      "anonymous": false,
      "inputs": [
        {
          "indexed": false,
          "internalType": "address",
          "name": "owner",
          "type": "address"
        }
      ],
      "name": "RemovedOwner",
      "type": "event"
    },
    {
      "anonymous": false,
      "inputs": [
        {
          "indexed": true,
          "internalType": "address",
          "name": "sender",
          "type": "address"
        },
        {
          "indexed": false,
          "internalType": "uint256",
          "name": "value",
          "type": "uint256"
        }
      ],
      "name": "SafeReceived",
      "type": "event"
    },
    {
      "anonymous": false,
      "inputs": [
        {
          "indexed": true,
          "internalType": "address",
          "name": "initiator",
          "type": "address"
        },
        {
          "indexed": false,
          "internalType": "address[]",
          "name": "owners",
          "type": "address[]"
        },
        {
          "indexed": false,
          "internalType": "uint256",
          "name": "threshold",
          "type": "uint256"
        },
        {
          "indexed": false,
          "internalType": "address",
          "name": "initializer",
          "type": "address"
        },
        {
          "indexed": false,
          "internalType": "address",
          "name": "fallbackHandler",
          "type": "address"
        }
      ],
      "name": "SafeSetup",
      "type": "event"
    },
    {
      "anonymous": false,
      "inputs": [
        {
          "indexed": true,
          "internalType": "bytes32",
          "name": "msgHash",
          "type": "bytes32"
        }
      ],
      "name": "SignMsg",
      "type": "event"
    },
    {
      "stateMutability": "nonpayable",
      "type": "fallback"
    },
    {
      "inputs": [],
      "name": "VERSION",
      "outputs": [
        {
          "internalType": "string",
          "name": "",
          "type": "string"
        }
      ],
      "stateMutability": "view",
      "type": "function"
    },
    {
      "inputs": [
        {
          "internalType": "address",
          "name": "owner",
          "type": "address"
        },
        {
          "internalType": "uint256",
          "name": "_threshold",
          "type": "uint256"
        }
      ],
      "name": "addOwnerWithThreshold",
      "outputs": [],
      "stateMutability": "nonpayable",
      "type": "function"
    },
    {
      "inputs": [
        {
          "internalType": "bytes32",
          "name": "hashToApprove",
          "type": "bytes32"
        }
      ],
      "name": "approveHash",
      "outputs": [],
      "stateMutability": "nonpayable",
      "type": "function"
    },
    {
      "inputs": [
        {
          "internalType": "address",
          "name": "",
          "type": "address"
        },
        {
          "internalType": "bytes32",
          "name": "",
          "type": "bytes32"
        }
      ],
      "name": "approvedHashes",
      "outputs": [
        {
          "internalType": "uint256",
          "name": "",
          "type": "uint256"
        }
      ],
      "stateMutability": "view",
      "type": "function"
    },
    {
      "inputs": [
        {
          "internalType": "uint256",
          "name": "_threshold",
          "type": "uint256"
        }
      ],
      "name": "changeThreshold",
      "outputs": [],
      "stateMutability": "nonpayable",
      "type": "function"
    },
    {
      "inputs": [
        {
          "internalType": "bytes32",
          "name": "dataHash",
          "type": "bytes32"
        },
        {
          "internalType": "bytes",
          "name": "data",
          "type": "bytes"
        },
        {
          "internalType": "bytes",
          "name": "signatures",
          "type": "bytes"
        },
        {
          "internalType": "uint256",
          "name": "requiredSignatures",
          "type": "uint256"
        }
      ],
      "name": "checkNSignatures",
      "outputs": [],
      "stateMutability": "view",
      "type": "function"
    },
    {
      "inputs": [
        {
          "internalType": "bytes32",
          "name": "dataHash",
          "type": "bytes32"
        },
        {
          "internalType": "bytes",
          "name": "data",
          "type": "bytes"
        },
        {
          "internalType": "bytes",
          "name": "signatures",
          "type": "bytes"
        }
      ],
      "name": "checkSignatures",
      "outputs": [],
      "stateMutability": "view",
      "type": "function"
    },
    {
      "inputs": [
        {
          "internalType": "address",
          "name": "prevModule",
          "type": "address"
        },
        {
          "internalType": "address",
          "name": "module",
          "type": "address"
        }
      ],
      "name": "disableModule",
      "outputs": [],
      "stateMutability": "nonpayable",
      "type": "function"
    },
    {
      "inputs": [],
      "name": "domainSeparator",
      "outputs": [
        {
          "internalType": "bytes32",
          "name": "",
          "type": "bytes32"
        }
      ],
      "stateMutability": "view",
      "type": "function"
    },
    {
      "inputs": [
        {
          "internalType": "address",
          "name": "module",
          "type": "address"
        }
      ],
      "name": "enableModule",
      "outputs": [],
      "stateMutability": "nonpayable",
      "type": "function"
    },
    {
      "inputs": [
        {
          "internalType": "address",
          "name": "to",
          "type": "address"
        },
        {
          "internalType": "uint256",
          "name": "value",
          "type": "uint256"
        },
        {
          "internalType": "bytes",
          "name": "data",
          "type": "bytes"
        },
        {
          "internalType": "enum Enum.Operation",
          "name": "operation",
          "type": "uint8"
        },
        {
          "internalType": "uint256",
          "name": "safeTxGas",
          "type": "uint256"
        },
        {
          "internalType": "uint256",
          "name": "baseGas",
          "type": "uint256"
        },
        {
          "internalType": "uint256",
          "name": "gasPrice",
          "type": "uint256"
        },
        {
          "internalType": "address",
          "name": "gasToken",
          "type": "address"
        },
        {
          "internalType": "address",
          "name": "refundReceiver",
          "type": "address"
        },
        {
          "internalType": "uint256",
          "name": "_nonce",
          "type": "uint256"
        }
      ],
      "name": "encodeTransactionData",
      "outputs": [
        {
          "internalType": "bytes",
          "name": "",
          "type": "bytes"
        }
      ],
      "stateMutability": "view",
      "type": "function"
    },
    {
      "inputs": [
        {
          "internalType": "address",
          "name": "to",
          "type": "address"
        },
        {
          "internalType": "uint256",
          "name": "value",
          "type": "uint256"
        },
        {
          "internalType": "bytes",
          "name": "data",
          "type": "bytes"
        },
        {
          "internalType": "enum Enum.Operation",
          "name": "operation",
          "type": "uint8"
        },
        {
          "internalType": "uint256",
          "name": "safeTxGas",
          "type": "uint256"
        },
        {
          "internalType": "uint256",
          "name": "baseGas",
          "type": "uint256"
        },
        {
          "internalType": "uint256",
          "name": "gasPrice",
          "type": "uint256"
        },
        {
          "internalType": "address",
          "name": "gasToken",
          "type": "address"
        },
        {
          "internalType": "address payable",
          "name": "refundReceiver",
          "type": "address"
        },
        {
          "internalType": "bytes",
          "name": "signatures",
          "type": "bytes"
        }
      ],
      "name": "execTransaction",
      "outputs": [
        {
          "internalType": "bool",
          "name": "success",
          "type": "bool"
        }
      ],
      "stateMutability": "payable",
      "type": "function"
    },
    {
      "inputs": [
        {
          "internalType": "address",
          "name": "to",
          "type": "address"
        },
        {
          "internalType": "uint256",
          "name": "value",
          "type": "uint256"
        },
        {
          "internalType": "bytes",
          "name": "data",
          "type": "bytes"
        },
        {
          "internalType": "enum Enum.Operation",
          "name": "operation",
          "type": "uint8"
        }
      ],
      "name": "execTransactionFromModule",
      "outputs": [
        {
          "internalType": "bool",
          "name": "success",
          "type": "bool"
        }
      ],
      "stateMutability": "nonpayable",
      "type": "function"
    },
    {
      "inputs": [
        {
          "internalType": "address",
          "name": "to",
          "type": "address"
        },
        {
          "internalType": "uint256",
          "name": "value",
          "type": "uint256"
        },
        {
          "internalType": "bytes",
          "name": "data",
          "type": "bytes"
        },
        {
          "internalType": "enum Enum.Operation",
          "name": "operation",
          "type": "uint8"
        }
      ],
      "name": "execTransactionFromModuleReturnData",
      "outputs": [
        {
          "internalType": "bool",
          "name": "success",
          "type": "bool"
        },
        {
          "internalType": "bytes",
          "name": "returnData",
          "type": "bytes"
        }
      ],
      "stateMutability": "nonpayable",
      "type": "function"
    },
    {
      "inputs": [],
      "name": "getChainId",
      "outputs": [
        {
          "internalType": "uint256",
          "name": "",
          "type": "uint256"
        }
      ],
      "stateMutability": "view",
      "type": "function"
    },
    {
      "inputs": [
        {
          "internalType": "address",
          "name": "start",
          "type": "address"
        },
        {
          "internalType": "uint256",
          "name": "pageSize",
          "type": "uint256"
        }
      ],
      "name": "getModulesPaginated",
      "outputs": [
        {
          "internalType": "address[]",
          "name": "array",
          "type": "address[]"
        },
        {
          "internalType": "address",
          "name": "next",
          "type": "address"
        }
      ],
      "stateMutability": "view",
      "type": "function"
    },
    {
      "inputs": [],
      "name": "getOwners",
      "outputs": [
        {
          "internalType": "address[]",
          "name": "",
          "type": "address[]"
        }
      ],
      "stateMutability": "view",
      "type": "function"
    },
    {
      "inputs": [
        {
          "internalType": "uint256",
          "name": "offset",
          "type": "uint256"
        },
        {
          "internalType": "uint256",
          "name": "length",
          "type": "uint256"
        }
      ],
      "name": "getStorageAt",
      "outputs": [
        {
          "internalType": "bytes",
          "name": "",
          "type": "bytes"
        }
      ],
      "stateMutability": "view",
      "type": "function"
    },
    {
      "inputs": [],
      "name": "getThreshold",
      "outputs": [
        {
          "internalType": "uint256",
          "name": "",
          "type": "uint256"
        }
      ],
      "stateMutability": "view",
      "type": "function"
    },
    {
      "inputs": [
        {
          "internalType": "address",
          "name": "to",
          "type": "address"
        },
        {
          "internalType": "uint256",
          "name": "value",
          "type": "uint256"
        },
        {
          "internalType": "bytes",
          "name": "data",
          "type": "bytes"
        },
        {
          "internalType": "enum Enum.Operation",
          "name": "operation",
          "type": "uint8"
        },
        {
          "internalType": "uint256",
          "name": "safeTxGas",
          "type": "uint256"
        },
        {
          "internalType": "uint256",
          "name": "baseGas",
          "type": "uint256"
        },
        {
          "internalType": "uint256",
          "name": "gasPrice",
          "type": "uint256"
        },
        {
          "internalType": "address",
          "name": "gasToken",
          "type": "address"
        },
        {
          "internalType": "address",
          "name": "refundReceiver",
          "type": "address"
        },
        {
          "internalType": "uint256",
          "name": "_nonce",
          "type": "uint256"
        }
      ],
      "name": "getTransactionHash",
      "outputs": [
        {
          "internalType": "bytes32",
          "name": "",
          "type": "bytes32"
        }
      ],
      "stateMutability": "view",
      "type": "function"
    },
    {
      "inputs": [
        {
          "internalType": "address",
          "name": "module",
          "type": "address"
        }
      ],
      "name": "isModuleEnabled",
      "outputs": [
        {
          "internalType": "bool",
          "name": "",
          "type": "bool"
        }
      ],
      "stateMutability": "view",
      "type": "function"
    },
    {
      "inputs": [
        {
          "internalType": "address",
          "name": "owner",
          "type": "address"
        }
      ],
      "name": "isOwner",
      "outputs": [
        {
          "internalType": "bool",
          "name": "",
          "type": "bool"
        }
      ],
      "stateMutability": "view",
      "type": "function"
    },
    {
      "inputs": [],
      "name": "nonce",
      "outputs": [
        {
          "internalType": "uint256",
          "name": "",
          "type": "uint256"
        }
      ],
      "stateMutability": "view",
      "type": "function"
    },
    {
      "inputs": [
        {
          "internalType": "address",
          "name": "prevOwner",
          "type": "address"
        },
        {
          "internalType": "address",
          "name": "owner",
          "type": "address"
        },
        {
          "internalType": "uint256",
          "name": "_threshold",
          "type": "uint256"
        }
      ],
      "name": "removeOwner",
      "outputs": [],
      "stateMutability": "nonpayable",
      "type": "function"
    },
    {
      "inputs": [
        {
          "internalType": "address",
          "name": "to",
          "type": "address"
        },
        {
          "internalType": "uint256",
          "name": "value",
          "type": "uint256"
        },
        {
          "internalType": "bytes",
          "name": "data",
          "type": "bytes"
        },
        {
          "internalType": "enum Enum.Operation",
          "name": "operation",
          "type": "uint8"
        }
      ],
      "name": "requiredTxGas",
      "outputs": [
        {
          "internalType": "uint256",
          "name": "",
          "type": "uint256"
        }
      ],
      "stateMutability": "nonpayable",
      "type": "function"
    },
    {
      "inputs": [
        {
          "internalType": "address",
          "name": "handler",
          "type": "address"
        }
      ],
      "name": "setFallbackHandler",
      "outputs": [],
      "stateMutability": "nonpayable",
      "type": "function"
    },
    {
      "inputs": [
        {
          "internalType": "address",
          "name": "guard",
          "type": "address"
        }
      ],
      "name": "setGuard",
      "outputs": [],
      "stateMutability": "nonpayable",
      "type": "function"
    },
    {
      "inputs": [
        {
          "internalType": "address[]",
          "name": "_owners",
          "type": "address[]"
        },
        {
          "internalType": "uint256",
          "name": "_threshold",
          "type": "uint256"
        },
        {
          "internalType": "address",
          "name": "to",
          "type": "address"
        },
        {
          "internalType": "bytes",
          "name": "data",
          "type": "bytes"
        },
        {
          "internalType": "address",
          "name": "fallbackHandler",
          "type": "address"
        },
        {
          "internalType": "address",
          "name": "paymentToken",
          "type": "address"
        },
        {
          "internalType": "uint256",
          "name": "payment",
          "type": "uint256"
        },
        {
          "internalType": "address payable",
          "name": "paymentReceiver",
          "type": "address"
        }
      ],
      "name": "setup",
      "outputs": [],
      "stateMutability": "nonpayable",
      "type": "function"
    },
    {
      "inputs": [
        {
          "internalType": "bytes32",
          "name": "",
          "type": "bytes32"
        }
      ],
      "name": "signedMessages",
      "outputs": [
        {
          "internalType": "uint256",
          "name": "",
          "type": "uint256"
        }
      ],
      "stateMutability": "view",
      "type": "function"
    },
    {
      "inputs": [
        {
          "internalType": "address",
          "name": "targetContract",
          "type": "address"
        },
        {
          "internalType": "bytes",
          "name": "calldataPayload",
          "type": "bytes"
        }
      ],
      "name": "simulateAndRevert",
      "outputs": [],
      "stateMutability": "nonpayable",
      "type": "function"
    },
    {
      "inputs": [
        {
          "internalType": "address",
          "name": "prevOwner",
          "type": "address"
        },
        {
          "internalType": "address",
          "name": "oldOwner",
          "type": "address"
        },
        {
          "internalType": "address",
          "name": "newOwner",
          "type": "address"
        }
      ],
      "name": "swapOwner",
      "outputs": [],
      "stateMutability": "nonpayable",
      "type": "function"
    },
    {
      "stateMutability": "payable",
      "type": "receive"
    }
  ],
  "transactionHash": "0xb13788e65e92919cca5b8641eb24d9b017911182359349d04d185ece711b8084",
  "args": [],
  "numDeployments": 1,
  "solcInputHash": "0f5da4a3f01c0159666d2a5dee165380",
  "bytecode": "0x608060405234801561001057600080fd5b5060016004819055506164cf80620000296000396000f3fe6080604052600436106101dc5760003560e01c8063affed0e011610102578063e19a9dd911610095578063f08a032311610064578063f08a0323146107de578063f698da2514610807578063f8dc5dd914610832578063ffa1ad741461085b57610231565b8063e19a9dd914610724578063e318b52b1461074d578063e75235b814610776578063e86637db146107a157610231565b8063cc2f8452116100d1578063cc2f845214610657578063d4d9bdcd14610695578063d8d11f78146106be578063e009cfde146106fb57610231565b8063affed0e01461059d578063b4faba09146105c8578063b63e800d146105f1578063c4ca3a9c1461061a57610231565b80635624b25b1161017a5780636a761202116101495780636a761202146104dc5780637d8329741461050c578063934f3a1114610549578063a0e67e2b1461057257610231565b80635624b25b146104105780635ae6bd371461044d578063610b59251461048a578063694e80c3146104b357610231565b80632f54bf6e116101b65780632f54bf6e1461032d5780633408e4701461036a578063468721a7146103955780635229073f146103d257610231565b80630d582f131461029e57806312fb68e0146102c75780632d9ad53d146102f057610231565b36610231573373ffffffffffffffffffffffffffffffffffffffff167f3d0ce9bfc3ed7d6862dbb28b2dea94561fe714a1b4d019aa8af39730d1ad7c3d346040516102279190615a1d565b60405180910390a2005b34801561023d57600080fd5b5060007f6c9a6c4a39284e37ed1cf53d337577d14212a4870fb976a4366c693b939918d560001b905080548061027257600080f35b36600080373360601b365260008060143601600080855af13d6000803e80610299573d6000fd5b3d6000f35b3480156102aa57600080fd5b506102c560048036038101906102c0919061459f565b610886565b005b3480156102d357600080fd5b506102ee60048036038101906102e99190614a9a565b610c00565b005b3480156102fc57600080fd5b506103176004803603810190610312919061440c565b611257565b6040516103249190615448565b60405180910390f35b34801561033957600080fd5b50610354600480360381019061034f919061440c565b611329565b6040516103619190615448565b60405180910390f35b34801561037657600080fd5b5061037f6113fb565b60405161038c9190615a1d565b60405180910390f35b3480156103a157600080fd5b506103bc60048036038101906103b79190614863565b611408565b6040516103c99190615448565b60405180910390f35b3480156103de57600080fd5b506103f960048036038101906103f49190614863565b6115bb565b604051610407929190615463565b60405180910390f35b34801561041c57600080fd5b5061043760048036038101906104329190614b7f565b6115f1565b6040516104449190615642565b60405180910390f35b34801561045957600080fd5b50610474600480360381019061046f91906149f2565b6116af565b6040516104819190615a1d565b60405180910390f35b34801561049657600080fd5b506104b160048036038101906104ac919061440c565b6116c7565b005b3480156104bf57600080fd5b506104da60048036038101906104d59190614b56565b6119dd565b005b6104f660048036038101906104f1919061465b565b611ab1565b6040516105039190615448565b60405180910390f35b34801561051857600080fd5b50610533600480360381019061052e919061450f565b611e72565b6040516105409190615a1d565b60405180910390f35b34801561055557600080fd5b50610570600480360381019061056b9190614a1b565b611e97565b005b34801561057e57600080fd5b50610587611ef3565b60405161059491906153f6565b60405180910390f35b3480156105a957600080fd5b506105b26120f7565b6040516105bf9190615a1d565b60405180910390f35b3480156105d457600080fd5b506105ef60048036038101906105ea919061454b565b6120fd565b005b3480156105fd57600080fd5b50610618600480360381019061061391906148de565b61211f565b005b34801561062657600080fd5b50610641600480360381019061063c91906145db565b612272565b60405161064e9190615a1d565b60405180910390f35b34801561066357600080fd5b5061067e6004803603810190610679919061459f565b61233e565b60405161068c929190615418565b60405180910390f35b3480156106a157600080fd5b506106bc60048036038101906106b791906149f2565b61258b565b005b3480156106ca57600080fd5b506106e560048036038101906106e0919061476b565b6126f7565b6040516106f29190615493565b60405180910390f35b34801561070757600080fd5b50610722600480360381019061071d9190614435565b612724565b005b34801561073057600080fd5b5061074b6004803603810190610746919061440c565b612a39565b005b34801561075957600080fd5b50610774600480360381019061076f9190614471565b612bc4565b005b34801561078257600080fd5b5061078b61313e565b6040516107989190615a1d565b60405180910390f35b3480156107ad57600080fd5b506107c860048036038101906107c3919061476b565b613148565b6040516107d59190615642565b60405180910390f35b3480156107ea57600080fd5b506108056004803603810190610800919061440c565b61320a565b005b34801561081357600080fd5b5061081c613255565b6040516108299190615493565b60405180910390f35b34801561083e57600080fd5b50610859600480360381019061085491906144c0565b6132b1565b005b34801561086757600080fd5b50610870613643565b60405161087d919061569b565b60405180910390f35b61088e61367c565b600073ffffffffffffffffffffffffffffffffffffffff168273ffffffffffffffffffffffffffffffffffffffff16141580156108f85750600173ffffffffffffffffffffffffffffffffffffffff168273ffffffffffffffffffffffffffffffffffffffff1614155b801561093057503073ffffffffffffffffffffffffffffffffffffffff168273ffffffffffffffffffffffffffffffffffffffff1614155b61096f576040517f08c379a00000000000000000000000000000000000000000000000000000000081526004016109669061579d565b60405180910390fd5b600073ffffffffffffffffffffffffffffffffffffffff16600260008473ffffffffffffffffffffffffffffffffffffffff1673ffffffffffffffffffffffffffffffffffffffff16815260200190815260200160002060009054906101000a900473ffffffffffffffffffffffffffffffffffffffff1673ffffffffffffffffffffffffffffffffffffffff1614610a3d576040517f08c379a0000000000000000000000000000000000000000000000000000000008152600401610a349061593d565b60405180910390fd5b60026000600173ffffffffffffffffffffffffffffffffffffffff1673ffffffffffffffffffffffffffffffffffffffff16815260200190815260200160002060009054906101000a900473ffffffffffffffffffffffffffffffffffffffff16600260008473ffffffffffffffffffffffffffffffffffffffff1673ffffffffffffffffffffffffffffffffffffffff16815260200190815260200160002060006101000a81548173ffffffffffffffffffffffffffffffffffffffff021916908373ffffffffffffffffffffffffffffffffffffffff1602179055508160026000600173ffffffffffffffffffffffffffffffffffffffff1673ffffffffffffffffffffffffffffffffffffffff16815260200190815260200160002060006101000a81548173ffffffffffffffffffffffffffffffffffffffff021916908373ffffffffffffffffffffffffffffffffffffffff16021790555060036000815480929190610bad90615e3b565b91905055507f9465fa0c962cc76958e6373a993326400c1c94f8be2fe3a952adfa7f60b2ea2682604051610be191906152a9565b60405180910390a18060045414610bfc57610bfb816119dd565b5b5050565b610c146041826136ec90919063ffffffff16565b82511015610c57576040517f08c379a0000000000000000000000000000000000000000000000000000000008152600401610c4e906159dd565b60405180910390fd5b6000808060008060005b8681101561124b57610c738882613731565b80945081955082965050505060008460ff161415610edd578260001c9450610ca56041886136ec90919063ffffffff16565b8260001c1015610cea576040517f08c379a0000000000000000000000000000000000000000000000000000000008152600401610ce19061599d565b60405180910390fd5b8751610d0360208460001c61376090919063ffffffff16565b1115610d44576040517f08c379a0000000000000000000000000000000000000000000000000000000008152600401610d3b9061575d565b60405180910390fd5b60006020838a01015190508851610d7a82610d6c60208760001c61376090919063ffffffff16565b61376090919063ffffffff16565b1115610dbb576040517f08c379a0000000000000000000000000000000000000000000000000000000008152600401610db2906156bd565b60405180910390fd5b60606020848b010190506320c13b0b60e01b7bffffffffffffffffffffffffffffffffffffffffffffffffffffffff19168773ffffffffffffffffffffffffffffffffffffffff166320c13b0b8d846040518363ffffffff1660e01b8152600401610e27929190615664565b60206040518083038186803b158015610e3f57600080fd5b505afa158015610e53573d6000803e3d6000fd5b505050506040513d601f19601f82011682018060405250810190610e779190614b2d565b7bffffffffffffffffffffffffffffffffffffffffffffffffffffffff191614610ed6576040517f08c379a0000000000000000000000000000000000000000000000000000000008152600401610ecd906156fd565b60405180910390fd5b50506110f6565b60018460ff16141561100e578260001c9450610f2d6040518060400160405280600b81526020017f5765206172652068657265000000000000000000000000000000000000000000815250613788565b610f3685613821565b610f3f33613821565b8473ffffffffffffffffffffffffffffffffffffffff163373ffffffffffffffffffffffffffffffffffffffff161480610fca57506000600860008773ffffffffffffffffffffffffffffffffffffffff1673ffffffffffffffffffffffffffffffffffffffff16815260200190815260200160002060008c81526020019081526020016000205414155b611009576040517f08c379a00000000000000000000000000000000000000000000000000000000081526004016110009061591d565b60405180910390fd5b6110f5565b601e8460ff1611156110a25760018a60405160200161102d9190615268565b604051602081830303815290604052805190602001206004866110509190615c58565b85856040516000815260200160405260405161106f94939291906155e2565b6020604051602081039080840390855afa158015611091573d6000803e3d6000fd5b5050506020604051035194506110f4565b60018a858585604051600081526020016040526040516110c594939291906155e2565b6020604051602081039080840390855afa1580156110e7573d6000803e3d6000fd5b5050506020604051035194505b5b5b8573ffffffffffffffffffffffffffffffffffffffff168573ffffffffffffffffffffffffffffffffffffffff161180156111bd5750600073ffffffffffffffffffffffffffffffffffffffff16600260008773ffffffffffffffffffffffffffffffffffffffff1673ffffffffffffffffffffffffffffffffffffffff16815260200190815260200160002060009054906101000a900473ffffffffffffffffffffffffffffffffffffffff1673ffffffffffffffffffffffffffffffffffffffff1614155b80156111f65750600173ffffffffffffffffffffffffffffffffffffffff168573ffffffffffffffffffffffffffffffffffffffff1614155b611235576040517f08c379a000000000000000000000000000000000000000000000000000000000815260040161122c906156dd565b60405180910390fd5b849550808061124390615e3b565b915050610c61565b50505050505050505050565b60008173ffffffffffffffffffffffffffffffffffffffff16600173ffffffffffffffffffffffffffffffffffffffff16141580156113225750600073ffffffffffffffffffffffffffffffffffffffff16600160008473ffffffffffffffffffffffffffffffffffffffff1673ffffffffffffffffffffffffffffffffffffffff16815260200190815260200160002060009054906101000a900473ffffffffffffffffffffffffffffffffffffffff1673ffffffffffffffffffffffffffffffffffffffff1614155b9050919050565b6000600173ffffffffffffffffffffffffffffffffffffffff168273ffffffffffffffffffffffffffffffffffffffff16141580156113f45750600073ffffffffffffffffffffffffffffffffffffffff16600260008473ffffffffffffffffffffffffffffffffffffffff1673ffffffffffffffffffffffffffffffffffffffff16815260200190815260200160002060009054906101000a900473ffffffffffffffffffffffffffffffffffffffff1673ffffffffffffffffffffffffffffffffffffffff1614155b9050919050565b6000804690508091505090565b6000600173ffffffffffffffffffffffffffffffffffffffff163373ffffffffffffffffffffffffffffffffffffffff16141580156114d35750600073ffffffffffffffffffffffffffffffffffffffff16600160003373ffffffffffffffffffffffffffffffffffffffff1673ffffffffffffffffffffffffffffffffffffffff16815260200190815260200160002060009054906101000a900473ffffffffffffffffffffffffffffffffffffffff1673ffffffffffffffffffffffffffffffffffffffff1614155b611512576040517f08c379a0000000000000000000000000000000000000000000000000000000008152600401611509906158dd565b60405180910390fd5b61151f858585855a6138ba565b9050801561156f573373ffffffffffffffffffffffffffffffffffffffff167f6895c13664aa4f67288b25d7a21d7aaa34916e355fb9b6fae0a139a9085becb860405160405180910390a26115b3565b3373ffffffffffffffffffffffffffffffffffffffff167facd2c8702804128fdb0db2bb49f6d127dd0181c13fd45dbfe16de0930e2bd37560405160405180910390a25b949350505050565b600060606115cb86868686611408565b915060405160203d0181016040523d81523d6000602083013e8091505094509492505050565b606060006020836116029190615bca565b67ffffffffffffffff811115611641577f4e487b7100000000000000000000000000000000000000000000000000000000600052604160045260246000fd5b6040519080825280601f01601f1916602001820160405280156116735781602001600182028036833780820191505090505b50905060005b838110156116a45780850154806020830260208501015250808061169c90615e3b565b915050611679565b508091505092915050565b60076020528060005260406000206000915090505481565b6116cf61367c565b600073ffffffffffffffffffffffffffffffffffffffff168173ffffffffffffffffffffffffffffffffffffffff16141580156117395750600173ffffffffffffffffffffffffffffffffffffffff168173ffffffffffffffffffffffffffffffffffffffff1614155b611778576040517f08c379a000000000000000000000000000000000000000000000000000000000815260040161176f906159bd565b60405180910390fd5b600073ffffffffffffffffffffffffffffffffffffffff16600160008373ffffffffffffffffffffffffffffffffffffffff1673ffffffffffffffffffffffffffffffffffffffff16815260200190815260200160002060009054906101000a900473ffffffffffffffffffffffffffffffffffffffff1673ffffffffffffffffffffffffffffffffffffffff1614611846576040517f08c379a000000000000000000000000000000000000000000000000000000000815260040161183d9061595d565b60405180910390fd5b60016000600173ffffffffffffffffffffffffffffffffffffffff1673ffffffffffffffffffffffffffffffffffffffff16815260200190815260200160002060009054906101000a900473ffffffffffffffffffffffffffffffffffffffff16600160008373ffffffffffffffffffffffffffffffffffffffff1673ffffffffffffffffffffffffffffffffffffffff16815260200190815260200160002060006101000a81548173ffffffffffffffffffffffffffffffffffffffff021916908373ffffffffffffffffffffffffffffffffffffffff1602179055508060016000600173ffffffffffffffffffffffffffffffffffffffff1673ffffffffffffffffffffffffffffffffffffffff16815260200190815260200160002060006101000a81548173ffffffffffffffffffffffffffffffffffffffff021916908373ffffffffffffffffffffffffffffffffffffffff1602179055507fecdf3a3effea5783a3c4c2140e677577666428d44ed9d474a0b3a4c9943f8440816040516119d291906152a9565b60405180910390a150565b6119e561367c565b600354811115611a2a576040517f08c379a0000000000000000000000000000000000000000000000000000000008152600401611a219061573d565b60405180910390fd5b6001811015611a6e576040517f08c379a0000000000000000000000000000000000000000000000000000000008152600401611a65906158bd565b60405180910390fd5b806004819055507f610f7ff2b304ae8903c3de74c60c6ab1f7d6226b3f52c5161905bb5ad4039c93600454604051611aa69190615a1d565b60405180910390a150565b6000806000611acb8e8e8e8e8e8e8e8e8e8e600554613148565b905060056000815480929190611ae090615e3b565b919050555080805190602001209150611afa828286611e97565b506000611b05613960565b9050600073ffffffffffffffffffffffffffffffffffffffff168173ffffffffffffffffffffffffffffffffffffffff1614611bbd578073ffffffffffffffffffffffffffffffffffffffff166375f0bb528f8f8f8f8f8f8f8f8f8f8f336040518d63ffffffff1660e01b8152600401611b8a9c9b9a999897969594939291906152ed565b600060405180830381600087803b158015611ba457600080fd5b505af1158015611bb8573d6000803e3d6000fd5b505050505b6101f4611bf86109c48b611bd19190615b43565b603f60408d611be09190615bca565b611bea9190615b99565b61399190919063ffffffff16565b611c029190615b43565b5a1015611c44576040517f08c379a0000000000000000000000000000000000000000000000000000000008152600401611c3b9061589d565b60405180910390fd5b60005a9050611cb68f8f8f8f8080601f016020809104026020016040519081016040528093929190818152602001838380828437600081840152601f19601f820116905080830192505050505050508e60008d14611ca2578e611cb1565b6109c45a611cb09190615c24565b5b6138ba565b9350611ccb5a826139ab90919063ffffffff16565b90508380611cda575060008a14155b80611ce6575060008814155b611d25576040517f08c379a0000000000000000000000000000000000000000000000000000000008152600401611d1c9061587d565b60405180910390fd5b600080891115611d3f57611d3c828b8b8b8b6139d4565b90505b8415611d83577f442e715f626346e8c54381002da614f62bee8d27386535b2521ec8540898556e8482604051611d76929190615582565b60405180910390a1611dbd565b7f23428b18acfb3ea64b08dc0c1d296ea9c09702c09083ca5272e64d115b687d238482604051611db4929190615582565b60405180910390a15b5050600073ffffffffffffffffffffffffffffffffffffffff168173ffffffffffffffffffffffffffffffffffffffff1614611e61578073ffffffffffffffffffffffffffffffffffffffff16639327136883856040518363ffffffff1660e01b8152600401611e2e929190615559565b600060405180830381600087803b158015611e4857600080fd5b505af1158015611e5c573d6000803e3d6000fd5b505050505b50509b9a5050505050505050505050565b6008602052816000526040600020602052806000526040600020600091509150505481565b6000600454905060008111611ee1576040517f08c379a0000000000000000000000000000000000000000000000000000000008152600401611ed89061585d565b60405180910390fd5b611eed84848484610c00565b50505050565b6060600060035467ffffffffffffffff811115611f39577f4e487b7100000000000000000000000000000000000000000000000000000000600052604160045260246000fd5b604051908082528060200260200182016040528015611f675781602001602082028036833780820191505090505b50905060008060026000600173ffffffffffffffffffffffffffffffffffffffff1673ffffffffffffffffffffffffffffffffffffffff16815260200190815260200160002060009054906101000a900473ffffffffffffffffffffffffffffffffffffffff1690505b600173ffffffffffffffffffffffffffffffffffffffff168173ffffffffffffffffffffffffffffffffffffffff16146120ee578083838151811061203f577f4e487b7100000000000000000000000000000000000000000000000000000000600052603260045260246000fd5b602002602001019073ffffffffffffffffffffffffffffffffffffffff16908173ffffffffffffffffffffffffffffffffffffffff1681525050600260008273ffffffffffffffffffffffffffffffffffffffff1673ffffffffffffffffffffffffffffffffffffffff16815260200190815260200160002060009054906101000a900473ffffffffffffffffffffffffffffffffffffffff16905081806120e690615e3b565b925050611fd1565b82935050505090565b60055481565b600080825160208401855af4806000523d6020523d600060403e60403d016000fd5b61216a8a8a80806020026020016040519081016040528093929190818152602001838360200280828437600081840152601f19601f8201169050808301925050505050505089613b74565b600073ffffffffffffffffffffffffffffffffffffffff168473ffffffffffffffffffffffffffffffffffffffff16146121a8576121a784613fa8565b5b6121f68787878080601f016020809104026020016040519081016040528093929190818152602001838380828437600081840152601f19601f82011690508083019250505050505050613fd7565b60008211156122105761220e826000600186856139d4565b505b3373ffffffffffffffffffffffffffffffffffffffff167f141df868a6331af528e38c83b7aa03edc19be66e37ae67f9285bf4f8e3c6a1a88b8b8b8b8960405161225e9594939291906153a8565b60405180910390a250505050505050505050565b6000805a90506122c9878787878080601f016020809104026020016040519081016040528093929190818152602001838380828437600081840152601f19601f82011690508083019250505050505050865a6138ba565b6122d257600080fd5b60005a826122e09190615c24565b9050806040516020016122f3919061528e565b6040516020818303038152906040526040517f08c379a0000000000000000000000000000000000000000000000000000000008152600401612335919061569b565b60405180910390fd5b606060008267ffffffffffffffff811115612382577f4e487b7100000000000000000000000000000000000000000000000000000000600052604160045260246000fd5b6040519080825280602002602001820160405280156123b05781602001602082028036833780820191505090505b509150600080600160008773ffffffffffffffffffffffffffffffffffffffff1673ffffffffffffffffffffffffffffffffffffffff16815260200190815260200160002060009054906101000a900473ffffffffffffffffffffffffffffffffffffffff1690505b600073ffffffffffffffffffffffffffffffffffffffff168173ffffffffffffffffffffffffffffffffffffffff16141580156124835750600173ffffffffffffffffffffffffffffffffffffffff168173ffffffffffffffffffffffffffffffffffffffff1614155b801561248e57508482105b1561257c57808483815181106124cd577f4e487b7100000000000000000000000000000000000000000000000000000000600052603260045260246000fd5b602002602001019073ffffffffffffffffffffffffffffffffffffffff16908173ffffffffffffffffffffffffffffffffffffffff1681525050600160008273ffffffffffffffffffffffffffffffffffffffff1673ffffffffffffffffffffffffffffffffffffffff16815260200190815260200160002060009054906101000a900473ffffffffffffffffffffffffffffffffffffffff169050818061257490615e3b565b925050612419565b80925081845250509250929050565b600073ffffffffffffffffffffffffffffffffffffffff16600260003373ffffffffffffffffffffffffffffffffffffffff1673ffffffffffffffffffffffffffffffffffffffff16815260200190815260200160002060009054906101000a900473ffffffffffffffffffffffffffffffffffffffff1673ffffffffffffffffffffffffffffffffffffffff16141561265a576040517f08c379a00000000000000000000000000000000000000000000000000000000081526004016126519061571d565b60405180910390fd5b6001600860003373ffffffffffffffffffffffffffffffffffffffff1673ffffffffffffffffffffffffffffffffffffffff1681526020019081526020016000206000838152602001908152602001600020819055503373ffffffffffffffffffffffffffffffffffffffff16817ff2a0eb156472d1440255b0d7c1e19cc07115d1051fe605b0dce69acfec884d9c60405160405180910390a350565b600061270c8c8c8c8c8c8c8c8c8c8c8c613148565b8051906020012090509b9a5050505050505050505050565b61272c61367c565b600073ffffffffffffffffffffffffffffffffffffffff168173ffffffffffffffffffffffffffffffffffffffff16141580156127965750600173ffffffffffffffffffffffffffffffffffffffff168173ffffffffffffffffffffffffffffffffffffffff1614155b6127d5576040517f08c379a00000000000000000000000000000000000000000000000000000000081526004016127cc906159bd565b60405180910390fd5b8073ffffffffffffffffffffffffffffffffffffffff16600160008473ffffffffffffffffffffffffffffffffffffffff1673ffffffffffffffffffffffffffffffffffffffff16815260200190815260200160002060009054906101000a900473ffffffffffffffffffffffffffffffffffffffff1673ffffffffffffffffffffffffffffffffffffffff16146128a2576040517f08c379a0000000000000000000000000000000000000000000000000000000008152600401612899906157fd565b60405180910390fd5b600160008273ffffffffffffffffffffffffffffffffffffffff1673ffffffffffffffffffffffffffffffffffffffff16815260200190815260200160002060009054906101000a900473ffffffffffffffffffffffffffffffffffffffff16600160008473ffffffffffffffffffffffffffffffffffffffff1673ffffffffffffffffffffffffffffffffffffffff16815260200190815260200160002060006101000a81548173ffffffffffffffffffffffffffffffffffffffff021916908373ffffffffffffffffffffffffffffffffffffffff1602179055506000600160008373ffffffffffffffffffffffffffffffffffffffff1673ffffffffffffffffffffffffffffffffffffffff16815260200190815260200160002060006101000a81548173ffffffffffffffffffffffffffffffffffffffff021916908373ffffffffffffffffffffffffffffffffffffffff1602179055507faab4fa2b463f581b2b32cb3b7e3b704b9ce37cc209b5fb4d77e593ace405427681604051612a2d91906152a9565b60405180910390a15050565b612a4161367c565b600073ffffffffffffffffffffffffffffffffffffffff168173ffffffffffffffffffffffffffffffffffffffff1614612b5e578073ffffffffffffffffffffffffffffffffffffffff166301ffc9a77fe6d7a83a000000000000000000000000000000000000000000000000000000006040518263ffffffff1660e01b8152600401612ace9190615627565b60206040518083038186803b158015612ae657600080fd5b505afa158015612afa573d6000803e3d6000fd5b505050506040513d601f19601f82011682018060405250810190612b1e91906149c9565b612b5d576040517f08c379a0000000000000000000000000000000000000000000000000000000008152600401612b549061597d565b60405180910390fd5b5b60007f4a204f620c8c5ccdca3fd54d003badd85ba500436a431f0cbda4f558c93c34c860001b90508181557f1151116914515bc0891ff9047a6cb32cf902546f83066499bcf8ba33d2353fa282604051612bb891906152a9565b60405180910390a15050565b612bcc61367c565b600073ffffffffffffffffffffffffffffffffffffffff168173ffffffffffffffffffffffffffffffffffffffff1614158015612c365750600173ffffffffffffffffffffffffffffffffffffffff168173ffffffffffffffffffffffffffffffffffffffff1614155b8015612c6e57503073ffffffffffffffffffffffffffffffffffffffff168173ffffffffffffffffffffffffffffffffffffffff1614155b612cad576040517f08c379a0000000000000000000000000000000000000000000000000000000008152600401612ca49061579d565b60405180910390fd5b600073ffffffffffffffffffffffffffffffffffffffff16600260008373ffffffffffffffffffffffffffffffffffffffff1673ffffffffffffffffffffffffffffffffffffffff16815260200190815260200160002060009054906101000a900473ffffffffffffffffffffffffffffffffffffffff1673ffffffffffffffffffffffffffffffffffffffff1614612d7b576040517f08c379a0000000000000000000000000000000000000000000000000000000008152600401612d729061593d565b60405180910390fd5b600073ffffffffffffffffffffffffffffffffffffffff168273ffffffffffffffffffffffffffffffffffffffff1614158015612de55750600173ffffffffffffffffffffffffffffffffffffffff168273ffffffffffffffffffffffffffffffffffffffff1614155b612e24576040517f08c379a0000000000000000000000000000000000000000000000000000000008152600401612e1b9061579d565b60405180910390fd5b8173ffffffffffffffffffffffffffffffffffffffff16600260008573ffffffffffffffffffffffffffffffffffffffff1673ffffffffffffffffffffffffffffffffffffffff16815260200190815260200160002060009054906101000a900473ffffffffffffffffffffffffffffffffffffffff1673ffffffffffffffffffffffffffffffffffffffff1614612ef1576040517f08c379a0000000000000000000000000000000000000000000000000000000008152600401612ee8906159fd565b60405180910390fd5b600260008373ffffffffffffffffffffffffffffffffffffffff1673ffffffffffffffffffffffffffffffffffffffff16815260200190815260200160002060009054906101000a900473ffffffffffffffffffffffffffffffffffffffff16600260008373ffffffffffffffffffffffffffffffffffffffff1673ffffffffffffffffffffffffffffffffffffffff16815260200190815260200160002060006101000a81548173ffffffffffffffffffffffffffffffffffffffff021916908373ffffffffffffffffffffffffffffffffffffffff16021790555080600260008573ffffffffffffffffffffffffffffffffffffffff1673ffffffffffffffffffffffffffffffffffffffff16815260200190815260200160002060006101000a81548173ffffffffffffffffffffffffffffffffffffffff021916908373ffffffffffffffffffffffffffffffffffffffff1602179055506000600260008473ffffffffffffffffffffffffffffffffffffffff1673ffffffffffffffffffffffffffffffffffffffff16815260200190815260200160002060006101000a81548173ffffffffffffffffffffffffffffffffffffffff021916908373ffffffffffffffffffffffffffffffffffffffff1602179055507ff8d49fc529812e9a7c5c50e69c20f0dccc0db8fa95c98bc58cc9a4f1c1299eaf826040516130fa91906152a9565b60405180910390a17f9465fa0c962cc76958e6373a993326400c1c94f8be2fe3a952adfa7f60b2ea268160405161313191906152a9565b60405180910390a1505050565b6000600454905090565b606060007fbb8310d486368db6bd6f849402fdd73ad53d316b5a4b2644ad6efe0f941286d860001b8d8d8d8d60405161318292919061524f565b60405180910390208c8c8c8c8c8c8c6040516020016131ab9b9a999897969594939291906154ae565b604051602081830303815290604052805190602001209050601960f81b600160f81b6131d5613255565b836040516020016131e99493929190615201565b6040516020818303038152906040529150509b9a5050505050505050505050565b61321261367c565b61321b81613fa8565b7f5ac6c46c93c8d0e53714ba3b53db3e7c046da994313d7ed0d192028bc7c228b08160405161324a91906152a9565b60405180910390a150565b60007f47e79534a245952e8b16893a336b85a3d9ea9fa8c573f3d803afb92a7946921860001b6132836113fb565b30604051602001613296939291906155ab565b60405160208183030381529060405280519060200120905090565b6132b961367c565b8060016003546132c99190615c24565b101561330a576040517f08c379a00000000000000000000000000000000000000000000000000000000081526004016133019061573d565b60405180910390fd5b600073ffffffffffffffffffffffffffffffffffffffff168273ffffffffffffffffffffffffffffffffffffffff16141580156133745750600173ffffffffffffffffffffffffffffffffffffffff168273ffffffffffffffffffffffffffffffffffffffff1614155b6133b3576040517f08c379a00000000000000000000000000000000000000000000000000000000081526004016133aa9061579d565b60405180910390fd5b8173ffffffffffffffffffffffffffffffffffffffff16600260008573ffffffffffffffffffffffffffffffffffffffff1673ffffffffffffffffffffffffffffffffffffffff16815260200190815260200160002060009054906101000a900473ffffffffffffffffffffffffffffffffffffffff1673ffffffffffffffffffffffffffffffffffffffff1614613480576040517f08c379a0000000000000000000000000000000000000000000000000000000008152600401613477906159fd565b60405180910390fd5b600260008373ffffffffffffffffffffffffffffffffffffffff1673ffffffffffffffffffffffffffffffffffffffff16815260200190815260200160002060009054906101000a900473ffffffffffffffffffffffffffffffffffffffff16600260008573ffffffffffffffffffffffffffffffffffffffff1673ffffffffffffffffffffffffffffffffffffffff16815260200190815260200160002060006101000a81548173ffffffffffffffffffffffffffffffffffffffff021916908373ffffffffffffffffffffffffffffffffffffffff1602179055506000600260008473ffffffffffffffffffffffffffffffffffffffff1673ffffffffffffffffffffffffffffffffffffffff16815260200190815260200160002060006101000a81548173ffffffffffffffffffffffffffffffffffffffff021916908373ffffffffffffffffffffffffffffffffffffffff160217905550600360008154809291906135ef90615de0565b91905055507ff8d49fc529812e9a7c5c50e69c20f0dccc0db8fa95c98bc58cc9a4f1c1299eaf8260405161362391906152a9565b60405180910390a1806004541461363e5761363d816119dd565b5b505050565b6040518060400160405280600581526020017f312e332e3000000000000000000000000000000000000000000000000000000081525081565b3073ffffffffffffffffffffffffffffffffffffffff163373ffffffffffffffffffffffffffffffffffffffff16146136ea576040517f08c379a00000000000000000000000000000000000000000000000000000000081526004016136e1906158fd565b60405180910390fd5b565b6000808314156136ff576000905061372b565b6000828461370d9190615bca565b905082848261371c9190615b99565b1461372657600080fd5b809150505b92915050565b60008060008360410260208101860151925060408101860151915060ff60418201870151169350509250925092565b600080828461376f9190615b43565b90508381101561377e57600080fd5b8091505092915050565b61381e8160405160240161379c919061569b565b6040516020818303038152906040527f41304fac000000000000000000000000000000000000000000000000000000007bffffffffffffffffffffffffffffffffffffffffffffffffffffffff19166020820180517bffffffffffffffffffffffffffffffffffffffffffffffffffffffff83818316178352505050506141ac565b50565b6138b78160405160240161383591906152a9565b6040516020818303038152906040527f2c2ecbc2000000000000000000000000000000000000000000000000000000007bffffffffffffffffffffffffffffffffffffffffffffffffffffffff19166020820180517bffffffffffffffffffffffffffffffffffffffffffffffffffffffff83818316178352505050506141ac565b50565b60006001808111156138f5577f4e487b7100000000000000000000000000000000000000000000000000000000600052602160045260246000fd5b83600181111561392e577f4e487b7100000000000000000000000000000000000000000000000000000000600052602160045260246000fd5b1415613947576000808551602087018986f49050613957565b600080855160208701888a87f190505b95945050505050565b6000807f4a204f620c8c5ccdca3fd54d003badd85ba500436a431f0cbda4f558c93c34c860001b9050805491505090565b6000818310156139a157816139a3565b825b905092915050565b6000828211156139ba57600080fd5b600082846139c89190615c24565b90508091505092915050565b600080600073ffffffffffffffffffffffffffffffffffffffff168373ffffffffffffffffffffffffffffffffffffffff1614613a115782613a13565b325b9050600073ffffffffffffffffffffffffffffffffffffffff168473ffffffffffffffffffffffffffffffffffffffff161415613af857613a7d3a8610613a5a573a613a5c565b855b613a6f888a61376090919063ffffffff16565b6136ec90919063ffffffff16565b91508073ffffffffffffffffffffffffffffffffffffffff166108fc839081150290604051600060405180830381858888f19350505050613af3576040517f08c379a0000000000000000000000000000000000000000000000000000000008152600401613aea906157dd565b60405180910390fd5b613b6a565b613b1d85613b0f888a61376090919063ffffffff16565b6136ec90919063ffffffff16565b9150613b2a8482846141d5565b613b69576040517f08c379a0000000000000000000000000000000000000000000000000000000008152600401613b609061581d565b60405180910390fd5b5b5095945050505050565b600060045414613bb9576040517f08c379a0000000000000000000000000000000000000000000000000000000008152600401613bb09061577d565b60405180910390fd5b8151811115613bfd576040517f08c379a0000000000000000000000000000000000000000000000000000000008152600401613bf49061573d565b60405180910390fd5b6001811015613c41576040517f08c379a0000000000000000000000000000000000000000000000000000000008152600401613c38906158bd565b60405180910390fd5b60006001905060005b8351811015613f14576000848281518110613c8e577f4e487b7100000000000000000000000000000000000000000000000000000000600052603260045260246000fd5b60200260200101519050600073ffffffffffffffffffffffffffffffffffffffff168173ffffffffffffffffffffffffffffffffffffffff1614158015613d025750600173ffffffffffffffffffffffffffffffffffffffff168173ffffffffffffffffffffffffffffffffffffffff1614155b8015613d3a57503073ffffffffffffffffffffffffffffffffffffffff168173ffffffffffffffffffffffffffffffffffffffff1614155b8015613d7257508073ffffffffffffffffffffffffffffffffffffffff168373ffffffffffffffffffffffffffffffffffffffff1614155b613db1576040517f08c379a0000000000000000000000000000000000000000000000000000000008152600401613da89061579d565b60405180910390fd5b600073ffffffffffffffffffffffffffffffffffffffff16600260008373ffffffffffffffffffffffffffffffffffffffff1673ffffffffffffffffffffffffffffffffffffffff16815260200190815260200160002060009054906101000a900473ffffffffffffffffffffffffffffffffffffffff1673ffffffffffffffffffffffffffffffffffffffff1614613e7f576040517f08c379a0000000000000000000000000000000000000000000000000000000008152600401613e769061593d565b60405180910390fd5b80600260008573ffffffffffffffffffffffffffffffffffffffff1673ffffffffffffffffffffffffffffffffffffffff16815260200190815260200160002060006101000a81548173ffffffffffffffffffffffffffffffffffffffff021916908373ffffffffffffffffffffffffffffffffffffffff160217905550809250508080613f0c90615e3b565b915050613c4a565b506001600260008373ffffffffffffffffffffffffffffffffffffffff1673ffffffffffffffffffffffffffffffffffffffff16815260200190815260200160002060006101000a81548173ffffffffffffffffffffffffffffffffffffffff021916908373ffffffffffffffffffffffffffffffffffffffff160217905550825160038190555081600481905550505050565b60007f6c9a6c4a39284e37ed1cf53d337577d14212a4870fb976a4366c693b939918d560001b90508181555050565b600073ffffffffffffffffffffffffffffffffffffffff1660016000600173ffffffffffffffffffffffffffffffffffffffff1673ffffffffffffffffffffffffffffffffffffffff16815260200190815260200160002060009054906101000a900473ffffffffffffffffffffffffffffffffffffffff1673ffffffffffffffffffffffffffffffffffffffff16146140a6576040517f08c379a000000000000000000000000000000000000000000000000000000000815260040161409d9061583d565b60405180910390fd5b6001806000600173ffffffffffffffffffffffffffffffffffffffff1673ffffffffffffffffffffffffffffffffffffffff16815260200190815260200160002060006101000a81548173ffffffffffffffffffffffffffffffffffffffff021916908373ffffffffffffffffffffffffffffffffffffffff160217905550600073ffffffffffffffffffffffffffffffffffffffff168273ffffffffffffffffffffffffffffffffffffffff16146141a8576141688260008360015a6138ba565b6141a7576040517f08c379a000000000000000000000000000000000000000000000000000000000815260040161419e906157bd565b60405180910390fd5b5b5050565b60008151905060006a636f6e736f6c652e6c6f679050602083016000808483855afa5050505050565b60008063a9059cbb84846040516024016141f09291906152c4565b6040516020818303038152906040529060e01b6020820180517bffffffffffffffffffffffffffffffffffffffffffffffffffffffff83818316178352505050509050602060008251602084016000896127105a03f13d6000811461426057602081146142685760009350614273565b819350614273565b600051158215171593505b5050509392505050565b600061429061428b84615a5d565b615a38565b9050828152602081018484840111156142a857600080fd5b6142b3848285615d9e565b509392505050565b6000813590506142ca816163ff565b92915050565b6000813590506142df81616416565b92915050565b60008083601f8401126142f757600080fd5b8235905067ffffffffffffffff81111561431057600080fd5b60208301915083602082028301111561432857600080fd5b9250929050565b60008151905061433e8161642d565b92915050565b60008135905061435381616444565b92915050565b6000815190506143688161645b565b92915050565b60008083601f84011261438057600080fd5b8235905067ffffffffffffffff81111561439957600080fd5b6020830191508360018202830111156143b157600080fd5b9250929050565b600082601f8301126143c957600080fd5b81356143d984826020860161427d565b91505092915050565b6000813590506143f181616472565b92915050565b60008135905061440681616482565b92915050565b60006020828403121561441e57600080fd5b600061442c848285016142bb565b91505092915050565b6000806040838503121561444857600080fd5b6000614456858286016142bb565b9250506020614467858286016142bb565b9150509250929050565b60008060006060848603121561448657600080fd5b6000614494868287016142bb565b93505060206144a5868287016142bb565b92505060406144b6868287016142bb565b9150509250925092565b6000806000606084860312156144d557600080fd5b60006144e3868287016142bb565b93505060206144f4868287016142bb565b9250506040614505868287016143f7565b9150509250925092565b6000806040838503121561452257600080fd5b6000614530858286016142bb565b925050602061454185828601614344565b9150509250929050565b6000806040838503121561455e57600080fd5b600061456c858286016142bb565b925050602083013567ffffffffffffffff81111561458957600080fd5b614595858286016143b8565b9150509250929050565b600080604083850312156145b257600080fd5b60006145c0858286016142bb565b92505060206145d1858286016143f7565b9150509250929050565b6000806000806000608086880312156145f357600080fd5b6000614601888289016142bb565b9550506020614612888289016143f7565b945050604086013567ffffffffffffffff81111561462f57600080fd5b61463b8882890161436e565b9350935050606061464e888289016143e2565b9150509295509295909350565b60008060008060008060008060008060006101408c8e03121561467d57600080fd5b600061468b8e828f016142bb565b9b5050602061469c8e828f016143f7565b9a505060408c013567ffffffffffffffff8111156146b957600080fd5b6146c58e828f0161436e565b995099505060606146d88e828f016143e2565b97505060806146e98e828f016143f7565b96505060a06146fa8e828f016143f7565b95505060c061470b8e828f016143f7565b94505060e061471c8e828f016142bb565b93505061010061472e8e828f016142d0565b9250506101208c013567ffffffffffffffff81111561474c57600080fd5b6147588e828f016143b8565b9150509295989b509295989b9093969950565b60008060008060008060008060008060006101408c8e03121561478d57600080fd5b600061479b8e828f016142bb565b9b505060206147ac8e828f016143f7565b9a505060408c013567ffffffffffffffff8111156147c957600080fd5b6147d58e828f0161436e565b995099505060606147e88e828f016143e2565b97505060806147f98e828f016143f7565b96505060a061480a8e828f016143f7565b95505060c061481b8e828f016143f7565b94505060e061482c8e828f016142bb565b93505061010061483e8e828f016142bb565b9250506101206148508e828f016143f7565b9150509295989b509295989b9093969950565b6000806000806080858703121561487957600080fd5b6000614887878288016142bb565b9450506020614898878288016143f7565b935050604085013567ffffffffffffffff8111156148b557600080fd5b6148c1878288016143b8565b92505060606148d2878288016143e2565b91505092959194509250565b6000806000806000806000806000806101008b8d0312156148fe57600080fd5b60008b013567ffffffffffffffff81111561491857600080fd5b6149248d828e016142e5565b9a509a505060206149378d828e016143f7565b98505060406149488d828e016142bb565b97505060608b013567ffffffffffffffff81111561496557600080fd5b6149718d828e0161436e565b965096505060806149848d828e016142bb565b94505060a06149958d828e016142bb565b93505060c06149a68d828e016143f7565b92505060e06149b78d828e016142d0565b9150509295989b9194979a5092959850565b6000602082840312156149db57600080fd5b60006149e98482850161432f565b91505092915050565b600060208284031215614a0457600080fd5b6000614a1284828501614344565b91505092915050565b600080600060608486031215614a3057600080fd5b6000614a3e86828701614344565b935050602084013567ffffffffffffffff811115614a5b57600080fd5b614a67868287016143b8565b925050604084013567ffffffffffffffff811115614a8457600080fd5b614a90868287016143b8565b9150509250925092565b60008060008060808587031215614ab057600080fd5b6000614abe87828801614344565b945050602085013567ffffffffffffffff811115614adb57600080fd5b614ae7878288016143b8565b935050604085013567ffffffffffffffff811115614b0457600080fd5b614b10878288016143b8565b9250506060614b21878288016143f7565b91505092959194509250565b600060208284031215614b3f57600080fd5b6000614b4d84828501614359565b91505092915050565b600060208284031215614b6857600080fd5b6000614b76848285016143f7565b91505092915050565b60008060408385031215614b9257600080fd5b6000614ba0858286016143f7565b9250506020614bb1858286016143f7565b9150509250929050565b6000614bc78383614be2565b60208301905092915050565b614bdc81615c9e565b82525050565b614beb81615c8c565b82525050565b614bfa81615c8c565b82525050565b6000614c0c8385615ae3565b9350614c1782615a8e565b8060005b85811015614c5057614c2d8284615b2c565b614c378882614bbb565b9750614c4283615ac9565b925050600181019050614c1b565b5085925050509392505050565b6000614c6882615aa8565b614c728185615ae3565b9350614c7d83615a98565b8060005b83811015614cae578151614c958882614bbb565b9750614ca083615ad6565b925050600181019050614c81565b5085935050505092915050565b614cc481615cb0565b82525050565b614cdb614cd682615cbc565b615e84565b82525050565b614cea81615ce8565b82525050565b614d01614cfc82615ce8565b615e8e565b82525050565b614d1081615cf2565b82525050565b6000614d228385615af4565b9350614d2f838584615d9e565b614d3883615f5e565b840190509392505050565b6000614d4f8385615b05565b9350614d5c838584615d9e565b82840190509392505050565b6000614d7382615ab3565b614d7d8185615af4565b9350614d8d818560208601615dad565b614d9681615f5e565b840191505092915050565b614daa81615d68565b82525050565b614db981615d8c565b82525050565b6000614dca82615abe565b614dd48185615b10565b9350614de4818560208601615dad565b614ded81615f5e565b840191505092915050565b6000614e05600583615b10565b9150614e1082615f6f565b602082019050919050565b6000614e28600583615b10565b9150614e3382615f98565b602082019050919050565b6000614e4b601c83615b21565b9150614e5682615fc1565b601c82019050919050565b6000614e6e600583615b10565b9150614e7982615fea565b602082019050919050565b6000614e91600583615b10565b9150614e9c82616013565b602082019050919050565b6000614eb4600583615b10565b9150614ebf8261603c565b602082019050919050565b6000614ed7600583615b10565b9150614ee282616065565b602082019050919050565b6000614efa600583615b10565b9150614f058261608e565b602082019050919050565b6000614f1d600583615b10565b9150614f28826160b7565b602082019050919050565b6000614f40600583615b10565b9150614f4b826160e0565b602082019050919050565b6000614f63600583615b10565b9150614f6e82616109565b602082019050919050565b6000614f86600583615b10565b9150614f9182616132565b602082019050919050565b6000614fa9600583615b10565b9150614fb48261615b565b602082019050919050565b6000614fcc600583615b10565b9150614fd782616184565b602082019050919050565b6000614fef600583615b10565b9150614ffa826161ad565b602082019050919050565b6000615012600583615b10565b915061501d826161d6565b602082019050919050565b6000615035600583615b10565b9150615040826161ff565b602082019050919050565b6000615058600583615b10565b915061506382616228565b602082019050919050565b600061507b600583615b10565b915061508682616251565b602082019050919050565b600061509e600583615b10565b91506150a98261627a565b602082019050919050565b60006150c1600583615b10565b91506150cc826162a3565b602082019050919050565b60006150e4600583615b10565b91506150ef826162cc565b602082019050919050565b6000615107600583615b10565b9150615112826162f5565b602082019050919050565b600061512a600583615b10565b91506151358261631e565b602082019050919050565b600061514d600583615b10565b915061515882616347565b602082019050919050565b6000615170600583615b10565b915061517b82616370565b602082019050919050565b6000615193600583615b10565b915061519e82616399565b602082019050919050565b60006151b6600583615b10565b91506151c1826163c2565b602082019050919050565b6151d581615d51565b82525050565b6151ec6151e782615d51565b615e98565b82525050565b6151fb81615d5b565b82525050565b600061520d8287614cca565b60018201915061521d8286614cca565b60018201915061522d8285614cf0565b60208201915061523d8284614cf0565b60208201915081905095945050505050565b600061525c828486614d43565b91508190509392505050565b600061527382614e3e565b915061527f8284614cf0565b60208201915081905092915050565b600061529a82846151db565b60208201915081905092915050565b60006020820190506152be6000830184614bf1565b92915050565b60006040820190506152d96000830185614bf1565b6152e660208301846151cc565b9392505050565b600061016082019050615303600083018f614bf1565b615310602083018e6151cc565b8181036040830152615323818c8e614d16565b9050615332606083018b614db0565b61533f608083018a6151cc565b61534c60a08301896151cc565b61535960c08301886151cc565b61536660e0830187614bf1565b615374610100830186614bd3565b8181036101208301526153878185614d68565b9050615397610140830184614bf1565b9d9c50505050505050505050505050565b600060808201905081810360008301526153c3818789614c00565b90506153d260208301866151cc565b6153df6040830185614bf1565b6153ec6060830184614bf1565b9695505050505050565b600060208201905081810360008301526154108184614c5d565b905092915050565b600060408201905081810360008301526154328185614c5d565b90506154416020830184614bf1565b9392505050565b600060208201905061545d6000830184614cbb565b92915050565b60006040820190506154786000830185614cbb565b818103602083015261548a8184614d68565b90509392505050565b60006020820190506154a86000830184614ce1565b92915050565b6000610160820190506154c4600083018e614ce1565b6154d1602083018d614bf1565b6154de604083018c6151cc565b6154eb606083018b614ce1565b6154f8608083018a614db0565b61550560a08301896151cc565b61551260c08301886151cc565b61551f60e08301876151cc565b61552d610100830186614bf1565b61553b610120830185614bf1565b6155496101408301846151cc565b9c9b505050505050505050505050565b600060408201905061556e6000830185614ce1565b61557b6020830184614cbb565b9392505050565b60006040820190506155976000830185614ce1565b6155a460208301846151cc565b9392505050565b60006060820190506155c06000830186614ce1565b6155cd60208301856151cc565b6155da6040830184614da1565b949350505050565b60006080820190506155f76000830187614ce1565b61560460208301866151f2565b6156116040830185614ce1565b61561e6060830184614ce1565b95945050505050565b600060208201905061563c6000830184614d07565b92915050565b6000602082019050818103600083015261565c8184614d68565b905092915050565b6000604082019050818103600083015261567e8185614d68565b905081810360208301526156928184614d68565b90509392505050565b600060208201905081810360008301526156b58184614dbf565b905092915050565b600060208201905081810360008301526156d681614df8565b9050919050565b600060208201905081810360008301526156f681614e1b565b9050919050565b6000602082019050818103600083015261571681614e61565b9050919050565b6000602082019050818103600083015261573681614e84565b9050919050565b6000602082019050818103600083015261575681614ea7565b9050919050565b6000602082019050818103600083015261577681614eca565b9050919050565b6000602082019050818103600083015261579681614eed565b9050919050565b600060208201905081810360008301526157b681614f10565b9050919050565b600060208201905081810360008301526157d681614f33565b9050919050565b600060208201905081810360008301526157f681614f56565b9050919050565b6000602082019050818103600083015261581681614f79565b9050919050565b6000602082019050818103600083015261583681614f9c565b9050919050565b6000602082019050818103600083015261585681614fbf565b9050919050565b6000602082019050818103600083015261587681614fe2565b9050919050565b6000602082019050818103600083015261589681615005565b9050919050565b600060208201905081810360008301526158b681615028565b9050919050565b600060208201905081810360008301526158d68161504b565b9050919050565b600060208201905081810360008301526158f68161506e565b9050919050565b6000602082019050818103600083015261591681615091565b9050919050565b60006020820190508181036000830152615936816150b4565b9050919050565b60006020820190508181036000830152615956816150d7565b9050919050565b60006020820190508181036000830152615976816150fa565b9050919050565b600060208201905081810360008301526159968161511d565b9050919050565b600060208201905081810360008301526159b681615140565b9050919050565b600060208201905081810360008301526159d681615163565b9050919050565b600060208201905081810360008301526159f681615186565b9050919050565b60006020820190508181036000830152615a16816151a9565b9050919050565b6000602082019050615a3260008301846151cc565b92915050565b6000615a42615a53565b9050615a4e8282615e0a565b919050565b6000604051905090565b600067ffffffffffffffff821115615a7857615a77615f2f565b5b615a8182615f5e565b9050602081019050919050565b6000819050919050565b6000819050602082019050919050565b600081519050919050565b600081519050919050565b600081519050919050565b6000602082019050919050565b6000602082019050919050565b600082825260208201905092915050565b600082825260208201905092915050565b600081905092915050565b600082825260208201905092915050565b600081905092915050565b6000615b3b60208401846142bb565b905092915050565b6000615b4e82615d51565b9150615b5983615d51565b9250827fffffffffffffffffffffffffffffffffffffffffffffffffffffffffffffffff03821115615b8e57615b8d615ea2565b5b828201905092915050565b6000615ba482615d51565b9150615baf83615d51565b925082615bbf57615bbe615ed1565b5b828204905092915050565b6000615bd582615d51565b9150615be083615d51565b9250817fffffffffffffffffffffffffffffffffffffffffffffffffffffffffffffffff0483118215151615615c1957615c18615ea2565b5b828202905092915050565b6000615c2f82615d51565b9150615c3a83615d51565b925082821015615c4d57615c4c615ea2565b5b828203905092915050565b6000615c6382615d5b565b9150615c6e83615d5b565b925082821015615c8157615c80615ea2565b5b828203905092915050565b6000615c9782615d31565b9050919050565b6000615ca982615d31565b9050919050565b60008115159050919050565b60007fff0000000000000000000000000000000000000000000000000000000000000082169050919050565b6000819050919050565b60007fffffffff0000000000000000000000000000000000000000000000000000000082169050919050565b6000819050615d2c826163eb565b919050565b600073ffffffffffffffffffffffffffffffffffffffff82169050919050565b6000819050919050565b600060ff82169050919050565b6000615d7382615d7a565b9050919050565b6000615d8582615d31565b9050919050565b6000615d9782615d1e565b9050919050565b82818337600083830152505050565b60005b83811015615dcb578082015181840152602081019050615db0565b83811115615dda576000848401525b50505050565b6000615deb82615d51565b91506000821415615dff57615dfe615ea2565b5b600182039050919050565b615e1382615f5e565b810181811067ffffffffffffffff82111715615e3257615e31615f2f565b5b80604052505050565b6000615e4682615d51565b91507fffffffffffffffffffffffffffffffffffffffffffffffffffffffffffffffff821415615e7957615e78615ea2565b5b600182019050919050565b6000819050919050565b6000819050919050565b6000819050919050565b7f4e487b7100000000000000000000000000000000000000000000000000000000600052601160045260246000fd5b7f4e487b7100000000000000000000000000000000000000000000000000000000600052601260045260246000fd5b7f4e487b7100000000000000000000000000000000000000000000000000000000600052602160045260246000fd5b7f4e487b7100000000000000000000000000000000000000000000000000000000600052604160045260246000fd5b6000601f19601f8301169050919050565b7f4753303233000000000000000000000000000000000000000000000000000000600082015250565b7f4753303236000000000000000000000000000000000000000000000000000000600082015250565b7f19457468657265756d205369676e6564204d6573736167653a0a333200000000600082015250565b7f4753303234000000000000000000000000000000000000000000000000000000600082015250565b7f4753303330000000000000000000000000000000000000000000000000000000600082015250565b7f4753323031000000000000000000000000000000000000000000000000000000600082015250565b7f4753303232000000000000000000000000000000000000000000000000000000600082015250565b7f4753323030000000000000000000000000000000000000000000000000000000600082015250565b7f4753323033000000000000000000000000000000000000000000000000000000600082015250565b7f4753303030000000000000000000000000000000000000000000000000000000600082015250565b7f4753303131000000000000000000000000000000000000000000000000000000600082015250565b7f4753313033000000000000000000000000000000000000000000000000000000600082015250565b7f4753303132000000000000000000000000000000000000000000000000000000600082015250565b7f4753313030000000000000000000000000000000000000000000000000000000600082015250565b7f4753303031000000000000000000000000000000000000000000000000000000600082015250565b7f4753303133000000000000000000000000000000000000000000000000000000600082015250565b7f4753303130000000000000000000000000000000000000000000000000000000600082015250565b7f4753323032000000000000000000000000000000000000000000000000000000600082015250565b7f4753313034000000000000000000000000000000000000000000000000000000600082015250565b7f4753303331000000000000000000000000000000000000000000000000000000600082015250565b7f4753303235000000000000000000000000000000000000000000000000000000600082015250565b7f4753323034000000000000000000000000000000000000000000000000000000600082015250565b7f4753313032000000000000000000000000000000000000000000000000000000600082015250565b7f4753333030000000000000000000000000000000000000000000000000000000600082015250565b7f4753303231000000000000000000000000000000000000000000000000000000600082015250565b7f4753313031000000000000000000000000000000000000000000000000000000600082015250565b7f4753303230000000000000000000000000000000000000000000000000000000600082015250565b7f4753323035000000000000000000000000000000000000000000000000000000600082015250565b600281106163fc576163fb615f00565b5b50565b61640881615c8c565b811461641357600080fd5b50565b61641f81615c9e565b811461642a57600080fd5b50565b61643681615cb0565b811461644157600080fd5b50565b61644d81615ce8565b811461645857600080fd5b50565b61646481615cf2565b811461646f57600080fd5b50565b6002811061647f57600080fd5b50565b61648b81615d51565b811461649657600080fd5b5056fea264697066735822122073124340217518bbc305f2550a8903feb9accdba526293839a91c31ef316e24c64736f6c63430008040033",
  "devdoc": {
    "kind": "dev",
    "methods": {
      "addOwnerWithThreshold(address,uint256)": {
        "details": "Allows to add a new owner to the Safe and update the threshold at the same time.      This can only be done via a Safe transaction.",
        "params": {
          "_threshold": "New threshold.",
          "owner": "New owner address."
        }
      },
      "approveHash(bytes32)": {
        "details": "Marks a hash as approved. This can be used to validate a hash that is used by a signature.",
        "params": {
          "hashToApprove": "The hash that should be marked as approved for signatures that are verified by this contract."
        }
      },
      "changeThreshold(uint256)": {
        "details": "Allows to update the number of required confirmations by Safe owners.      This can only be done via a Safe transaction.",
        "params": {
          "_threshold": "New threshold."
        }
      },
      "checkNSignatures(bytes32,bytes,bytes,uint256)": {
        "details": "Checks whether the signature provided is valid for the provided data, hash. Will revert otherwise.",
        "params": {
          "data": "That should be signed (this is passed to an external validator contract)",
          "dataHash": "Hash of the data (could be either a message hash or transaction hash)",
          "requiredSignatures": "Amount of required valid signatures.",
          "signatures": "Signature data that should be verified. Can be ECDSA signature, contract signature (EIP-1271) or approved hash."
        }
      },
      "checkSignatures(bytes32,bytes,bytes)": {
        "details": "Checks whether the signature provided is valid for the provided data, hash. Will revert otherwise.",
        "params": {
          "data": "That should be signed (this is passed to an external validator contract)",
          "dataHash": "Hash of the data (could be either a message hash or transaction hash)",
          "signatures": "Signature data that should be verified. Can be ECDSA signature, contract signature (EIP-1271) or approved hash."
        }
      },
      "disableModule(address,address)": {
        "details": "Allows to remove a module from the whitelist.      This can only be done via a Safe transaction.",
        "params": {
          "module": "Module to be removed.",
          "prevModule": "Module that pointed to the module to be removed in the linked list"
        }
      },
      "enableModule(address)": {
        "details": "Allows to add a module to the whitelist.      This can only be done via a Safe transaction.",
        "params": {
          "module": "Module to be whitelisted."
        }
      },
      "encodeTransactionData(address,uint256,bytes,uint8,uint256,uint256,uint256,address,address,uint256)": {
        "details": "Returns the bytes that are hashed to be signed by owners.",
        "params": {
          "_nonce": "Transaction nonce.",
          "baseGas": "Gas costs for that are independent of the transaction execution(e.g. base transaction fee, signature check, payment of the refund)",
          "data": "Data payload.",
          "gasPrice": "Maximum gas price that should be used for this transaction.",
          "gasToken": "Token address (or 0 if ETH) that is used for the payment.",
          "operation": "Operation type.",
          "refundReceiver": "Address of receiver of gas payment (or 0 if tx.origin).",
          "safeTxGas": "Gas that should be used for the safe transaction.",
          "to": "Destination address.",
          "value": "Ether value."
        },
        "returns": {
          "_0": "Transaction hash bytes."
        }
      },
      "execTransaction(address,uint256,bytes,uint8,uint256,uint256,uint256,address,address,bytes)": {
        "details": "Allows to execute a Safe transaction confirmed by required number of owners and then pays the account that submitted the transaction.      Note: The fees are always transferred, even if the user transaction fails.",
        "params": {
          "baseGas": "Gas costs that are independent of the transaction execution(e.g. base transaction fee, signature check, payment of the refund)",
          "data": "Data payload of Safe transaction.",
          "gasPrice": "Gas price that should be used for the payment calculation.",
          "gasToken": "Token address (or 0 if ETH) that is used for the payment.",
          "operation": "Operation type of Safe transaction.",
          "refundReceiver": "Address of receiver of gas payment (or 0 if tx.origin).",
          "safeTxGas": "Gas that should be used for the Safe transaction.",
          "signatures": "Packed signature data ({bytes32 r}{bytes32 s}{uint8 v})",
          "to": "Destination address of Safe transaction.",
          "value": "Ether value of Safe transaction."
        }
      },
      "execTransactionFromModule(address,uint256,bytes,uint8)": {
        "details": "Allows a Module to execute a Safe transaction without any further confirmations.",
        "params": {
          "data": "Data payload of module transaction.",
          "operation": "Operation type of module transaction.",
          "to": "Destination address of module transaction.",
          "value": "Ether value of module transaction."
        }
      },
      "execTransactionFromModuleReturnData(address,uint256,bytes,uint8)": {
        "details": "Allows a Module to execute a Safe transaction without any further confirmations and return data",
        "params": {
          "data": "Data payload of module transaction.",
          "operation": "Operation type of module transaction.",
          "to": "Destination address of module transaction.",
          "value": "Ether value of module transaction."
        }
      },
      "getChainId()": {
        "details": "Returns the chain id used by this contract."
      },
      "getModulesPaginated(address,uint256)": {
        "details": "Returns array of modules.",
        "params": {
          "pageSize": "Maximum number of modules that should be returned.",
          "start": "Start of the page."
        },
        "returns": {
          "array": "Array of modules.",
          "next": "Start of the next page."
        }
      },
      "getOwners()": {
        "details": "Returns array of owners.",
        "returns": {
          "_0": "Array of Safe owners."
        }
      },
      "getStorageAt(uint256,uint256)": {
        "details": "Reads `length` bytes of storage in the currents contract",
        "params": {
          "length": "- the number of words (32 bytes) of data to read",
          "offset": "- the offset in the current contract's storage in words to start reading from"
        },
        "returns": {
          "_0": "the bytes that were read."
        }
      },
      "getTransactionHash(address,uint256,bytes,uint8,uint256,uint256,uint256,address,address,uint256)": {
        "details": "Returns hash to be signed by owners.",
        "params": {
          "_nonce": "Transaction nonce.",
          "baseGas": "Gas costs for data used to trigger the safe transaction.",
          "data": "Data payload.",
          "gasPrice": "Maximum gas price that should be used for this transaction.",
          "gasToken": "Token address (or 0 if ETH) that is used for the payment.",
          "operation": "Operation type.",
          "refundReceiver": "Address of receiver of gas payment (or 0 if tx.origin).",
          "safeTxGas": "Fas that should be used for the safe transaction.",
          "to": "Destination address.",
          "value": "Ether value."
        },
        "returns": {
          "_0": "Transaction hash."
        }
      },
      "isModuleEnabled(address)": {
        "details": "Returns if an module is enabled",
        "returns": {
          "_0": "True if the module is enabled"
        }
      },
      "removeOwner(address,address,uint256)": {
        "details": "Allows to remove an owner from the Safe and update the threshold at the same time.      This can only be done via a Safe transaction.",
        "params": {
          "_threshold": "New threshold.",
          "owner": "Owner address to be removed.",
          "prevOwner": "Owner that pointed to the owner to be removed in the linked list"
        }
      },
      "requiredTxGas(address,uint256,bytes,uint8)": {
        "details": "Allows to estimate a Safe transaction.      This method is only meant for estimation purpose, therefore the call will always revert and encode the result in the revert data.      Since the `estimateGas` function includes refunds, call this method to get an estimated of the costs that are deducted from the safe with `execTransaction`",
        "params": {
          "data": "Data payload of Safe transaction.",
          "operation": "Operation type of Safe transaction.",
          "to": "Destination address of Safe transaction.",
          "value": "Ether value of Safe transaction."
        },
        "returns": {
          "_0": "Estimate without refunds and overhead fees (base transaction and payload data gas costs)."
        }
      },
      "setFallbackHandler(address)": {
        "details": "Allows to add a contract to handle fallback calls.      Only fallback calls without value and with data will be forwarded.      This can only be done via a Safe transaction.",
        "params": {
          "handler": "contract to handle fallback calls."
        }
      },
      "setGuard(address)": {
        "details": "Set a guard that checks transactions before execution",
        "params": {
          "guard": "The address of the guard to be used or the 0 address to disable the guard"
        }
      },
      "setup(address[],uint256,address,bytes,address,address,uint256,address)": {
        "details": "Setup function sets initial storage of contract.",
        "params": {
          "_owners": "List of Safe owners.",
          "_threshold": "Number of required confirmations for a Safe transaction.",
          "data": "Data payload for optional delegate call.",
          "fallbackHandler": "Handler for fallback calls to this contract",
          "payment": "Value that should be paid",
          "paymentReceiver": "Address that should receive the payment (or 0 if tx.origin)",
          "paymentToken": "Token that should be used for the payment (0 is ETH)",
          "to": "Contract address for optional delegate call."
        }
      },
      "simulateAndRevert(address,bytes)": {
        "details": "Performs a delegatecall on a targetContract in the context of self. Internally reverts execution to avoid side effects (making it static). This method reverts with data equal to `abi.encode(bool(success), bytes(response))`. Specifically, the `returndata` after a call to this method will be: `success:bool || response.length:uint256 || response:bytes`.",
        "params": {
          "calldataPayload": "Calldata that should be sent to the target contract (encoded method name and arguments).",
          "targetContract": "Address of the contract containing the code to execute."
        }
      },
      "swapOwner(address,address,address)": {
        "details": "Allows to swap/replace an owner from the Safe with another address.      This can only be done via a Safe transaction.",
        "params": {
          "newOwner": "New owner address.",
          "oldOwner": "Owner address to be replaced.",
          "prevOwner": "Owner that pointed to the owner to be replaced in the linked list"
        }
      }
    },
    "version": 1
  },
  "userdoc": {
    "kind": "user",
    "methods": {
      "addOwnerWithThreshold(address,uint256)": {
        "notice": "Adds the owner `owner` to the Safe and updates the threshold to `_threshold`."
      },
      "changeThreshold(uint256)": {
        "notice": "Changes the threshold of the Safe to `_threshold`."
      },
      "disableModule(address,address)": {
        "notice": "Disables the module `module` for the Safe."
      },
      "enableModule(address)": {
        "notice": "Enables the module `module` for the Safe."
      },
      "removeOwner(address,address,uint256)": {
        "notice": "Removes the owner `owner` from the Safe and updates the threshold to `_threshold`."
      },
      "requiredTxGas(address,uint256,bytes,uint8)": {
        "notice": "Deprecated in favor of common/StorageAccessible.sol and will be removed in next version."
      },
      "swapOwner(address,address,address)": {
        "notice": "Replaces the owner `oldOwner` in the Safe with `newOwner`."
      }
    },
    "version": 1
  },
  "storageLayout": {
    "storage": [
      {
        "astId": 2658,
        "contract": "contracts/deps/Deps_V1_3_0.sol:GnosisSafe_SV1_3_0",
        "label": "singleton",
        "offset": 0,
        "slot": "0",
        "type": "t_address"
      },
      {
        "astId": 1709,
        "contract": "contracts/deps/Deps_V1_3_0.sol:GnosisSafe_SV1_3_0",
        "label": "modules",
        "offset": 0,
        "slot": "1",
        "type": "t_mapping(t_address,t_address)"
      },
      {
        "astId": 2068,
        "contract": "contracts/deps/Deps_V1_3_0.sol:GnosisSafe_SV1_3_0",
        "label": "owners",
        "offset": 0,
        "slot": "2",
        "type": "t_mapping(t_address,t_address)"
      },
      {
        "astId": 2070,
        "contract": "contracts/deps/Deps_V1_3_0.sol:GnosisSafe_SV1_3_0",
        "label": "ownerCount",
        "offset": 0,
        "slot": "3",
        "type": "t_uint256"
      },
      {
        "astId": 2072,
        "contract": "contracts/deps/Deps_V1_3_0.sol:GnosisSafe_SV1_3_0",
        "label": "threshold",
        "offset": 0,
        "slot": "4",
        "type": "t_uint256"
      },
      {
        "astId": 421,
        "contract": "contracts/deps/Deps_V1_3_0.sol:GnosisSafe_SV1_3_0",
        "label": "nonce",
        "offset": 0,
        "slot": "5",
        "type": "t_uint256"
      },
      {
        "astId": 423,
        "contract": "contracts/deps/Deps_V1_3_0.sol:GnosisSafe_SV1_3_0",
        "label": "_deprecatedDomainSeparator",
        "offset": 0,
        "slot": "6",
        "type": "t_bytes32"
      },
      {
        "astId": 427,
        "contract": "contracts/deps/Deps_V1_3_0.sol:GnosisSafe_SV1_3_0",
        "label": "signedMessages",
        "offset": 0,
        "slot": "7",
        "type": "t_mapping(t_bytes32,t_uint256)"
      },
      {
        "astId": 433,
        "contract": "contracts/deps/Deps_V1_3_0.sol:GnosisSafe_SV1_3_0",
        "label": "approvedHashes",
        "offset": 0,
        "slot": "8",
        "type": "t_mapping(t_address,t_mapping(t_bytes32,t_uint256))"
      }
    ],
    "types": {
      "t_address": {
        "encoding": "inplace",
        "label": "address",
        "numberOfBytes": "20"
      },
      "t_bytes32": {
        "encoding": "inplace",
        "label": "bytes32",
        "numberOfBytes": "32"
      },
      "t_mapping(t_address,t_address)": {
        "encoding": "mapping",
        "key": "t_address",
        "label": "mapping(address => address)",
        "numberOfBytes": "32",
        "value": "t_address"
      },
      "t_mapping(t_address,t_mapping(t_bytes32,t_uint256))": {
        "encoding": "mapping",
        "key": "t_address",
        "label": "mapping(address => mapping(bytes32 => uint256))",
        "numberOfBytes": "32",
        "value": "t_mapping(t_bytes32,t_uint256)"
      },
      "t_mapping(t_bytes32,t_uint256)": {
        "encoding": "mapping",
        "key": "t_bytes32",
        "label": "mapping(bytes32 => uint256)",
        "numberOfBytes": "32",
        "value": "t_uint256"
      },
      "t_uint256": {
        "encoding": "inplace",
        "label": "uint256",
        "numberOfBytes": "32"
      }
    }
  }
}