{
  "_format": "hh-sol-artifact-1",
  "contractName": "BrentModule",
  "sourceName": "contracts/BrentModule.sol",
  "abi": [
    {
      "inputs": [
        {
          "internalType": "address",
          "name": "_target",
          "type": "address"
        },
        {
          "internalType": "address",
          "name": "_tokenAddress",
          "type": "address"
        },
        {
          "internalType": "address",
          "name": "_lenderAddress",
          "type": "address"
        },
        {
          "internalType": "address",
          "name": "_borrowersAddress",
          "type": "address"
        },
        {
          "internalType": "uint256",
          "name": "_tokenId",
          "type": "uint256"
        }
      ],
      "stateMutability": "nonpayable",
      "type": "constructor"
    },
    {
      "inputs": [],
      "name": "returnNFT",
      "outputs": [
        {
          "internalType": "bool",
          "name": "success",
          "type": "bool"
        }
      ],
      "stateMutability": "nonpayable",
      "type": "function"
    }
  ],
  "bytecode": "0x608060405234801561001057600080fd5b506040516107f83803806107f88339818101604052810190610032919061012f565b83600160006101000a81548173ffffffffffffffffffffffffffffffffffffffff021916908373ffffffffffffffffffffffffffffffffffffffff16021790555082600460006101000a81548173ffffffffffffffffffffffffffffffffffffffff021916908373ffffffffffffffffffffffffffffffffffffffff16021790555080600381905550846000806101000a81548173ffffffffffffffffffffffffffffffffffffffff021916908373ffffffffffffffffffffffffffffffffffffffff1602179055505050505050610210565b600081519050610114816101e2565b92915050565b600081519050610129816101f9565b92915050565b600080600080600060a0868803121561014757600080fd5b600061015588828901610105565b955050602061016688828901610105565b945050604061017788828901610105565b935050606061018888828901610105565b92505060806101998882890161011a565b9150509295509295909350565b60006101b1826101b8565b9050919050565b600073ffffffffffffffffffffffffffffffffffffffff82169050919050565b6000819050919050565b6101eb816101a6565b81146101f657600080fd5b50565b610202816101d8565b811461020d57600080fd5b50565b6105d98061021f6000396000f3fe608060405234801561001057600080fd5b506004361061002b5760003560e01c8063c6d62d9014610030575b600080fd5b61003861004e565b60405161004591906103ba565b60405180910390f35b6000600460009054906101000a900473ffffffffffffffffffffffffffffffffffffffff1673ffffffffffffffffffffffffffffffffffffffff163373ffffffffffffffffffffffffffffffffffffffff16146100aa57600080fd5b60008054906101000a900473ffffffffffffffffffffffffffffffffffffffff1673ffffffffffffffffffffffffffffffffffffffff1663468721a7600160009054906101000a900473ffffffffffffffffffffffffffffffffffffffff1660007f42842e0eb38857a7775b4e7364b2775df7325074d088e7fb39590cd6281184ed60008054906101000a900473ffffffffffffffffffffffffffffffffffffffff16600460009054906101000a900473ffffffffffffffffffffffffffffffffffffffff166003546040516020016101869493929190610320565b60405160208183030381529060405260006040518563ffffffff1660e01b81526004016101b6949392919061036e565b602060405180830381600087803b1580156101d057600080fd5b505af11580156101e4573d6000803e3d6000fd5b505050506040513d601f19601f820116820180604052508101906102089190610226565b90506001905090565b6000815190506102208161058c565b92915050565b60006020828403121561023857600080fd5b600061024684828501610211565b91505092915050565b61026061025b82610403565b6104f3565b82525050565b61026f816103f1565b82525050565b610286610281826103f1565b6104e1565b82525050565b61029581610415565b82525050565b6102ac6102a782610421565b610505565b82525050565b60006102bd826103d5565b6102c781856103e0565b93506102d78185602086016104ae565b6102e08161055a565b840191505092915050565b6102f48161048a565b82525050565b6103038161049c565b82525050565b61031a61031582610480565b610521565b82525050565b600061032c828761029b565b60048201915061033c828661024f565b60148201915061034c8285610275565b60148201915061035c8284610309565b60208201915081905095945050505050565b60006080820190506103836000830187610266565b61039060208301866102fa565b81810360408301526103a281856102b2565b90506103b160608301846102eb565b95945050505050565b60006020820190506103cf600083018461028c565b92915050565b600081519050919050565b600082825260208201905092915050565b60006103fc82610460565b9050919050565b600061040e82610460565b9050919050565b60008115159050919050565b60007fffffffff0000000000000000000000000000000000000000000000000000000082169050919050565b600081905061045b82610578565b919050565b600073ffffffffffffffffffffffffffffffffffffffff82169050919050565b6000819050919050565b60006104958261044d565b9050919050565b60006104a782610480565b9050919050565b60005b838110156104cc5780820151818401526020810190506104b1565b838111156104db576000848401525b50505050565b60006104ec8261050f565b9050919050565b60006104fe8261050f565b9050919050565b6000819050919050565b600061051a8261056b565b9050919050565b6000819050919050565b7f4e487b7100000000000000000000000000000000000000000000000000000000600052602160045260246000fd5b6000601f19601f8301169050919050565b60008160601b9050919050565b600281106105895761058861052b565b5b50565b61059581610415565b81146105a057600080fd5b5056fea2646970667358221220435e3ddb40fb224753a846532e576374c2038ef6e74f635919eb1f092e987e4064736f6c63430008040033",
  "linkReferences": {},
  "deployedLinkReferences": {}
}